{"contracts/BaseLuckyLotto.sol":{"BaseLuckyLotto":{"abi":[{"inputs":[{"internalType":"address","name":"_payout","type":"address"}],"stateMutability":"nonpayable","type":"constructor"},{"inputs":[{"internalType":"address","name":"sender","type":"address"},{"internalType":"uint256","name":"tokenId","type":"uint256"},{"internalType":"address","name":"owner","type":"address"}],"name":"ERC721IncorrectOwner","type":"error"},{"inputs":[{"internalType":"address","name":"operator","type":"address"},{"internalType":"uint256","name":"tokenId","type":"uint256"}],"name":"ERC721InsufficientApproval","type":"error"},{"inputs":[{"internalType":"address","name":"approver","type":"address"}],"name":"ERC721InvalidApprover","type":"error"},{"inputs":[{"internalType":"address","name":"operator","type":"address"}],"name":"ERC721InvalidOperator","type":"error"},{"inputs":[{"internalType":"address","name":"owner","type":"address"}],"name":"ERC721InvalidOwner","type":"error"},{"inputs":[{"internalType":"address","name":"receiver","type":"address"}],"name":"ERC721InvalidReceiver","type":"error"},{"inputs":[{"internalType":"address","name":"sender","type":"address"}],"name":"ERC721InvalidSender","type":"error"},{"inputs":[{"internalType":"uint256","name":"tokenId","type":"uint256"}],"name":"ERC721NonexistentToken","type":"error"},{"inputs":[{"internalType":"address","name":"owner","type":"address"}],"name":"OwnableInvalidOwner","type":"error"},{"inputs":[{"internalType":"address","name":"account","type":"address"}],"name":"OwnableUnauthorizedAccount","type":"error"},{"inputs":[],"name":"ReentrancyGuardReentrantCall","type":"error"},{"inputs":[],"name":"SoldOut","type":"error"},{"inputs":[],"name":"WrongValue","type":"error"},{"anonymous":false,"inputs":[{"indexed":true,"internalType":"address","name":"owner","type":"address"},{"indexed":true,"internalType":"address","name":"approved","type":"address"},{"indexed":true,"internalType":"uint256","name":"tokenId","type":"uint256"}],"name":"Approval","type":"event"},{"anonymous":false,"inputs":[{"indexed":true,"internalType":"address","name":"owner","type":"address"},{"indexed":true,"internalType":"address","name":"operator","type":"address"},{"indexed":false,"internalType":"bool","name":"approved","type":"bool"}],"name":"ApprovalForAll","type":"event"},{"anonymous":false,"inputs":[{"indexed":true,"internalType":"address","name":"previousOwner","type":"address"},{"indexed":true,"internalType":"address","name":"newOwner","type":"address"}],"name":"OwnershipTransferred","type":"event"},{"anonymous":false,"inputs":[{"indexed":true,"internalType":"address","name":"from","type":"address"},{"indexed":true,"internalType":"address","name":"to","type":"address"},{"indexed":true,"internalType":"uint256","name":"tokenId","type":"uint256"}],"name":"Transfer","type":"event"},{"inputs":[],"name":"MAX_SUPPLY","outputs":[{"internalType":"uint256","name":"","type":"uint256"}],"stateMutability":"view","type":"function"},{"inputs":[],"name":"MINT_PRICE","outputs":[{"internalType":"uint256","name":"","type":"uint256"}],"stateMutability":"view","type":"function"},{"inputs":[{"internalType":"address","name":"to","type":"address"},{"internalType":"uint256","name":"tokenId","type":"uint256"}],"name":"approve","outputs":[],"stateMutability":"nonpayable","type":"function"},{"inputs":[{"internalType":"address","name":"owner","type":"address"}],"name":"balanceOf","outputs":[{"internalType":"uint256","name":"","type":"uint256"}],"stateMutability":"view","type":"function"},{"inputs":[{"internalType":"uint256","name":"tokenId","type":"uint256"}],"name":"getApproved","outputs":[{"internalType":"address","name":"","type":"address"}],"stateMutability":"view","type":"function"},{"inputs":[{"internalType":"address","name":"owner","type":"address"},{"internalType":"address","name":"operator","type":"address"}],"name":"isApprovedForAll","outputs":[{"internalType":"bool","name":"","type":"bool"}],"stateMutability":"view","type":"function"},{"inputs":[],"name":"mint","outputs":[{"internalType":"uint256","name":"tokenId","type":"uint256"}],"stateMutability":"payable","type":"function"},{"inputs":[],"name":"name","outputs":[{"internalType":"string","name":"","type":"string"}],"stateMutability":"view","type":"function"},{"inputs":[],"name":"owner","outputs":[{"internalType":"address","name":"","type":"address"}],"stateMutability":"view","type":"function"},{"inputs":[{"internalType":"uint256","name":"tokenId","type":"uint256"}],"name":"ownerOf","outputs":[{"internalType":"address","name":"","type":"address"}],"stateMutability":"view","type":"function"},{"inputs":[],"name":"payout","outputs":[{"internalType":"address","name":"","type":"address"}],"stateMutability":"view","type":"function"},{"inputs":[],"name":"renounceOwnership","outputs":[],"stateMutability":"nonpayable","type":"function"},{"inputs":[{"internalType":"address","name":"from","type":"address"},{"internalType":"address","name":"to","type":"address"},{"internalType":"uint256","name":"tokenId","type":"uint256"}],"name":"safeTransferFrom","outputs":[],"stateMutability":"nonpayable","type":"function"},{"inputs":[{"internalType":"address","name":"from","type":"address"},{"internalType":"address","name":"to","type":"address"},{"internalType":"uint256","name":"tokenId","type":"uint256"},{"internalType":"bytes","name":"data","type":"bytes"}],"name":"safeTransferFrom","outputs":[],"stateMutability":"nonpayable","type":"function"},{"inputs":[{"internalType":"address","name":"operator","type":"address"},{"internalType":"bool","name":"approved","type":"bool"}],"name":"setApprovalForAll","outputs":[],"stateMutability":"nonpayable","type":"function"},{"inputs":[{"internalType":"bytes4","name":"interfaceId","type":"bytes4"}],"name":"supportsInterface","outputs":[{"internalType":"bool","name":"","type":"bool"}],"stateMutability":"view","type":"function"},{"inputs":[],"name":"symbol","outputs":[{"internalType":"string","name":"","type":"string"}],"stateMutability":"view","type":"function"},{"inputs":[{"internalType":"uint256","name":"tokenId","type":"uint256"}],"name":"tokenURI","outputs":[{"internalType":"string","name":"","type":"string"}],"stateMutability":"view","type":"function"},{"inputs":[],"name":"totalMinted","outputs":[{"internalType":"uint256","name":"","type":"uint256"}],"stateMutability":"view","type":"function"},{"inputs":[{"internalType":"address","name":"from","type":"address"},{"internalType":"address","name":"to","type":"address"},{"internalType":"uint256","name":"tokenId","type":"uint256"}],"name":"transferFrom","outputs":[],"stateMutability":"nonpayable","type":"function"},{"inputs":[{"internalType":"address","name":"newOwner","type":"address"}],"name":"transferOwnership","outputs":[],"stateMutability":"nonpayable","type":"function"},{"inputs":[],"name":"withdraw","outputs":[],"stateMutability":"nonpayable","type":"function"}],"evm":{"bytecode":{"linkReferences":{},"object":"60a034620003ff57601f90601f19906001600160401b03620023cf388190038581018516840183811185821017620003e957849282916040528339602093849181010312620003ff5751936001600160a01b039384861692838703620003ff576200006962000404565b92601084526f42617365204c75636b79204c6f74746f60801b868501526200009062000404565b600381526210931360ea1b87820152845193838511620003e9576000948554966001978881811c91168015620003de575b8b821014620003ca5790818684931162000377575b508a908683116001146200031457889262000308575b5050600019600383901b1c191690871b1785555b8151938411620002f45785548681811c91168015620002e9575b89821014620002d55790818486959493116200027e575b50889284116001146200021d5750849262000211575b5050600019600383901b1c191690831b1782555b3315620001f957600654903360018060a01b03198316176006557f8be0079c531659141344cd1fd0a4f28419497f9722a3daafe3b4186f6b6457e0604051963393169180a360075515620001cd5782608052604051611faa90816200042582396080518181816110db015261117f0152f35b62461bcd60e51b82526004820152600860248201526707061796f75743d360c41b604482015260649150fd5b60249060405190631e4fbdf760e01b82526004820152fd5b01519050388062000147565b86865288862087959093929116865b8a8282106200026757505084116200024d575b505050811b0182556200015b565b015160001960f88460031b161c191690553880806200023f565b83850151865589979095019493840193016200022c565b90919293508686528886208480870160051c8201928b8810620002cb575b9187968a92969594930160051c01915b828110620002bc57505062000131565b888155879650899101620002ac565b925081926200029c565b634e487b7160e01b86526022600452602486fd5b90607f16906200011a565b634e487b7160e01b85526041600452602485fd5b015190503880620000ec565b90848a9416918980528c8a20928d8b905b8282106200035f575050841162000345575b505050811b01855562000100565b015160001960f88460031b161c1916905538808062000337565b8385015186558d979095019493840193018e62000325565b9091508780528a88208680850160051c8201928d8610620003c0575b918b91869594930160051c01915b828110620003b1575050620000d6565b8a81558594508b9101620003a1565b9250819262000393565b634e487b7160e01b88526022600452602488fd5b90607f1690620000c1565b634e487b7160e01b600052604160045260246000fd5b600080fd5b60408051919082016001600160401b03811183821017620003e95760405256fe6080604081815260048036101561001557600080fd5b600092833560e01c90816301ffc9a7146116885750806306fdde03146115bb578063081812fc14611582578063095ea7b3146114a85780631249c58b1461122f57806323b872dd1461121757806332cb6b0c146111fa5780633ccfd60b1461115e57806342842e0e1461112f5780636352211e146110ff57806363bd1d4a146110bb57806370a0823114611066578063715018a6146110125780638da5cb5b14610fea57806395d89b4114610edf578063a22cb46514610e3e578063a2309ff814610e1f578063b88d4fde14610d8a578063c002d23d14610d69578063c87b56dd146101f2578063e985e9c5146101a05763f2fde38b1461011557600080fd5b3461019c57602036600319011261019c5761012e61173c565b90610137611a51565b6001600160a01b03809216928315610186575050600654826001600160a01b0319821617600655167f8be0079c531659141344cd1fd0a4f28419497f9722a3daafe3b4186f6b6457e08380a380f35b51631e4fbdf760e01b8152908101849052602490fd5b8280fd5b5050346101ee57806003193601126101ee5760ff816020936101c061173c565b6101c8611757565b6001600160a01b0391821683526005875283832091168252855220549151911615158152f35b5080fd5b508290346101ee5760209182600319360112610d665750610d02610d62913561021a816119f3565b50610cf461011f610a9b7f30302f737667272077696474683d2739303027206865696768743d2736303027610a8d6106d38a8a61025689611c3d565b82519586937f3c73766720786d6c6e733d27687474703a2f2f7777772e77332e6f72672f3230848601528401527f2076696577426f783d273020302039303020363030273e0000000000000000006060840152651e3232b3399f60d11b60778401527f3c6c696e6561724772616469656e742069643d2767272078313d273027207931607d8401527f3d2730272078323d2731272079323d2731273e00000000000000000000000000609d8401527f3c73746f70206f66667365743d273025272073746f702d636f6c6f723d27233060b084015267311898191813979f60c11b60d08401527f3c73746f70206f66667365743d2731303025272073746f702d636f6c6f723d2760d8840152691198b119309b3113979f60b11b60f88401527f3c2f6c696e6561724772616469656e743e0000000000000000000000000000006101028401527f3c66696c7465722069643d27736861646f772720783d272d3230252720793d276101138401527f2d323025272077696474683d273134302527206865696768743d273134302527610133840152601f60f91b806101538501527f3c666544726f70536861646f772064783d2730272064793d27382720737464446101548501527f6576696174696f6e3d2731302720666c6f6f642d636f6c6f723d2723303030276101748501527f20666c6f6f642d6f7061636974793d27302e3335272f3e000000000000000000610194850152681e17b334b63a32b91f60b91b6101ab850152661e17b232b3399f60c91b6101b48501527f3c726563742077696474683d2739303027206865696768743d273630302720666101bb8501527f696c6c3d2775726c28236729272f3e00000000000000000000000000000000006101db8501527f3c672066696c7465723d2775726c2823736861646f7729273e000000000000006101ea8501527f3c7265637420783d2737302720793d273730272077696474683d2737363027206102038501527f6865696768743d27343630272072783d273236272066696c6c3d27236637663361022385015264329c13979f60d91b6102438501527f3c7265637420783d2737302720793d27313630272077696474683d27373630276102488501527f206865696768743d2732272066696c6c3d272331623261366227206f706163696102688501526a3a3c9e939817191a93979f60a91b610288850152631e17b39f60e11b6102938501527f3c7465787420783d273131302720793d273133302720666f6e742d66616d696c6102978501527f793d2775692d73616e732d73657269662c2073797374656d2d75692720666f6e806102b78601527f742d73697a653d273430272066696c6c3d27233062313032302720666f6e742d6102d78601527f7765696768743d27373030273e42415345204c55434b59204c4f54544f3c2f746102f78601526332bc3a1f60e11b6103178601527f3c7465787420783d273131302720793d273231302720666f6e742d66616d696c61031b860152661e17ba32bc3a1f60c91b7f793d2775692d6d6f6e6f73706163652c2053464d6f6e6f2d526567756c61722c938461033b8801527f204d656e6c6f2c204d6f6e61636f2720666f6e742d73697a653d27323227206661035b8801527f696c6c3d272330623130323027206f7061636974793d27302e3735273e4f4e2d61037b8801527f434841494e205449434b45543c2f746578743e0000000000000000000000000061039b8801527f3c7465787420783d273131302720793d273239302720666f6e742d66616d696c6103ae880152846103ce8801527f204d656e6c6f2c204d6f6e61636f2720666f6e742d73697a653d2733302720666103ee8801527f696c6c3d27233062313032302720666f6e742d7765696768743d27373030273e61040e880152675449434b4554202360c01b61042e8801526107f0610436968251928391898b0191016116f4565b8601948501527f3c7465787420783d273131302720793d273334302720666f6e742d66616d696c61043d8501528061045d8501527f742d73697a653d273138272066696c6c3d272330623130323027206f70616369908161047d8601527f74793d27302e37273e4e6574776f726b3a20426173653c2f746578743e00000061049d8601527f3c7465787420783d273131302720793d273337302720666f6e742d66616d696c6104ba860152806104da860152816104fa8601527f74793d27302e37273e537570706c793a2033303030206d61783c2f746578743e61051a8601527f3c7465787420783d273131302720793d273430302720666f6e742d66616d696c61053a86015261055a85015261057a8401527f74793d27302e37273e4d696e743a20302e3030303135204554483c2f7465787461059a8401526105ba8301527f3c636972636c652063783d27373430272063793d273332302720723d273738276105bb8301527f2066696c6c3d272331623261366227206f7061636974793d27302e3132272f3e6105db8301527f3c636972636c652063783d27373630272063793d273333302720723d273538276105fb8301527f2066696c6c3d272331623261366227206f7061636974793d27302e3136272f3e61061b8301527f3c7465787420783d273638302720793d273530352720666f6e742d66616d696c61063b83015261065b8201527f204d656e6c6f2c204d6f6e61636f2720666f6e742d73697a653d27313427206661067b8201527f696c6c3d272330623130323027206f7061636974793d27302e3435273e64617461069b8201527f613a206f6e2d636861696e3c2f746578743e00000000000000000000000000006106bb820152651e17b9bb339f60d11b6106cd820152036106b38101845201826117d4565b610a95611b9b565b90611d8e565b928751610aee603a828a8101977f646174613a696d6167652f7376672b786d6c3b6261736536342c0000000000008952610ade8c825192839186860191016116f4565b810103601a8101845201826117d4565b610b00610afa83611c3d565b92611c3d565b8951958693607b60f81b8b8601527f226e616d65223a2242617365204c75636b79204c6f74746f20230000000000006021860152610b47815180928d603b890191016116f4565b8401610beb6208880b60ea1b9485603b8401527f226465736372697074696f6e223a224f6e2d636861696e206c75636b79207469603e8401527f636b6574206f6e20426173652e204d696e742070726963652066697865643b20605e8401527f737570706c79206361707065642e22202c000000000000000000000000000000607e840152681134b6b0b3b2911d1160b91b608f84015251809360988401906116f4565b019160988301527f2261747472696275746573223a5b000000000000000000000000000000000000609b8301527f7b2274726169745f74797065223a22536572696573222c2276616c7565223a2260a98301526911d95b995cda5cc89f4b60b21b60c98301527f7b2274726169745f74797065223a224e6574776f726b222c2276616c7565223a60d3830152670890985cd9489f4b60c21b60f38301527f7b2274726169745f74797065223a225469636b6574222c2276616c7565223a2260fb83015261011b91610cc4825180938c86850191016116f4565b019061227d60f01b90820152605d60f81b61011d820152607d60f81b61011e8201520360ff8101845201826117d4565b610cfc611b9b565b90611ea6565b92610d53603d825180967f646174613a6170706c69636174696f6e2f6a736f6e3b6261736536342c00000087830152610d43815180928986860191016116f4565b810103601d8101875201856117d4565b51928284938452830190611717565b0390f35b80fd5b5050346101ee57816003193601126101ee576020905165886c98b760008152f35b50903461019c57608036600319011261019c57610da561173c565b610dad611757565b60443591856064359567ffffffffffffffff87116101ee57366023880112156101ee5786013595610de9610de0886117f6565b965196876117d4565b86865236602488830101116101ee5786610e1c976024602093018389013786010152610e16838383611812565b33611a7d565b80f35b5050346101ee57816003193601126101ee576020906008549051908152f35b50903461019c578060031936011261019c57610e5861173c565b9060243591821515809303610edb576001600160a01b0316928315610ec65750338452600560205280842083855260205280842060ff1981541660ff8416179055519081527f17307eab39ab6107e8899845ad3d59bd9653f200f220920489ca2b5937696c3160203392a380f35b836024925191630b61174360e31b8352820152fd5b8480fd5b509134610d665780600319360112610d665781519181600192600154938460011c9160018616958615610fe0575b6020968785108114610fcd578899509688969785829a529182600014610fa6575050600114610f4a575b505050610d629291610d539103856117d4565b9190869350600183527fb10e2d527612073b26eecdfd717e6a320cf44b4afac2b0732d9fcbe2b7fa0cf65b828410610f8e5750505082010181610d53610d62610f37565b8054848a018601528895508794909301928101610f75565b60ff19168782015293151560051b86019093019350849250610d539150610d629050610f37565b634e487b7160e01b835260228a52602483fd5b92607f1692610f0d565b5050346101ee57816003193601126101ee576020906001600160a01b03600654169051908152f35b8334610d665780600319360112610d665761102b611a51565b806001600160a01b0360065481198116600655167f8be0079c531659141344cd1fd0a4f28419497f9722a3daafe3b4186f6b6457e08280a380f35b509134610d66576020366003190112610d66576001600160a01b0361108961173c565b169283156110a65750806020938392526003845220549051908152f35b91516322718ad960e21b815291820152602490fd5b5050346101ee57816003193601126101ee57602090516001600160a01b037f0000000000000000000000000000000000000000000000000000000000000000168152f35b509134610d66576020366003190112610d6657506001600160a01b03611127602093356119f3565b915191168152f35b5050346101ee57610e1c906111433661176d565b91925192611150846117a2565b858452610e16838383611812565b50903461019c578260031936011261019c57611178611a2e565b82808080477f00000000000000000000000000000000000000000000000000000000000000005af16111a86119c3565b50156111b75782600160075580f35b906020606492519162461bcd60e51b8352820152600f60248201527f7769746864726177206661696c656400000000000000000000000000000000006044820152fd5b5050346101ee57816003193601126101ee5760209051610bb88152f35b8334610d6657610e1c6112293661176d565b91611812565b509190816003193601126101ee57611245611a2e565b65886c98b7600034036114995760085492610bb884101561148b576000199380851461147857600101928360085582519061127f826117a2565b80825233156114625784815260209560028752856001600160a01b038684205416801515928361142b575b503380855260038a528785208054600101905582855260028a52878520805473ffffffffffffffffffffffffffffffffffffffff191682179055907fddf252ad1be2c89b69c2b068fc378daa952ba7f163c4a11628f55a4df523b3ef8580a461141557333b611322575b505050600160075551908152f35b839492945186818061135b630a85bd0160e11b96878352338b840152866024840152886044840152608060648401526084830190611717565b038185335af1908290826113d1575b50506113a05750505061137b6119c3565b805193908461139a578251633250574960e11b81523381860152602490fd5b84925001fd5b9193916001600160e01b031916036113bb5750388080611314565b6024915190633250574960e11b82523390820152fd5b909192508781813d831161140e575b6113ea81836117d4565b810103126101ee5751906001600160e01b031982168203610d66575090388061136a565b503d6113e0565b905060249251916339e3563760e11b8352820152fd5b61144c83600052600460205260406000206001600160a01b03198154169055565b81855260038a52878520908154019055386112aa565b90506024925191633250574960e11b8352820152fd5b634e487b7160e01b845260118252602484fd5b90516352df9fe560e01b8152fd5b51632635240760e21b81529050fd5b50903461019c578060031936011261019c576114c261173c565b916024356114cf816119f3565b3315158061156f575b80611547575b6115315781906001600160a01b03809616958691167f8c5be1e5ebec7d5bd14f71427d1e84f3dd0314c0f7b2291e5b200ac8c7c3b9258880a484526020528220906001600160a01b031982541617905580f35b835163a9fbf51f60e01b81523381850152602490fd5b506001600160a01b0381168652600560205283862033875260205260ff8487205416156114de565b50336001600160a01b03821614156114d8565b503461019c57602036600319011261019c5781602093826001600160a01b0393356115ac816119f3565b50825285522054169051908152f35b509134610d665780600319360112610d66578151918182549260018460011c916001861695861561167e575b6020968785108114610fcd578899509688969785829a529182600014610fa657505060011461162357505050610d629291610d539103856117d4565b91908693508280527f290decd9548b62a8d60345a988386fc84ba6bc95484008f6362f93160ef3e5635b8284106116665750505082010181610d53610d62610f37565b8054848a01860152889550879490930192810161164d565b92607f16926115e7565b9250503461019c57602036600319011261019c573563ffffffff60e01b811680910361019c57602092506380ac58cd60e01b81149081156116e3575b81156116d2575b5015158152f35b6301ffc9a760e01b149050386116cb565b635b5e139f60e01b811491506116c4565b60005b8381106117075750506000910152565b81810151838201526020016116f7565b90602091611730815180928185528580860191016116f4565b601f01601f1916010190565b600435906001600160a01b038216820361175257565b600080fd5b602435906001600160a01b038216820361175257565b6060906003190112611752576001600160a01b0390600435828116810361175257916024359081168103611752579060443590565b6020810190811067ffffffffffffffff8211176117be57604052565b634e487b7160e01b600052604160045260246000fd5b90601f8019910116810190811067ffffffffffffffff8211176117be57604052565b67ffffffffffffffff81116117be57601f01601f191660200190565b90916001600160a01b038093169283156119aa57600092828452826020956002875260409684888820541696879133151580611914575b509060027fddf252ad1be2c89b69c2b068fc378daa952ba7f163c4a11628f55a4df523b3ef92846118dc575b858352600381528b83208054600101905586835252898120805473ffffffffffffffffffffffffffffffffffffffff19168517905580a416928383036118bb5750505050565b6064945051926364283d7b60e01b8452600484015260248301526044820152fd5b6118fd87600052600460205260406000206001600160a01b03198154169055565b848352600381528b83208054600019019055611875565b91939450915080611969575b1561193057859291879138611849565b87868861194d576024915190637e27328960e01b82526004820152fd5b604491519063177e802f60e01b82523360048301526024820152fd5b50338714801561198e575b806119205750858252600481523385898420541614611920565b5086825260058152878220338352815260ff8883205416611974565b604051633250574960e11b815260006004820152602490fd5b3d156119ee573d906119d4826117f6565b916119e260405193846117d4565b82523d6000602084013e565b606090565b8060005260026020526001600160a01b0360406000205416908115611a16575090565b60249060405190637e27328960e01b82526004820152fd5b600260075414611a3f576002600755565b604051633ee5aeb560e01b8152600490fd5b6001600160a01b03600654163303611a6557565b60405163118cdaa760e01b8152336004820152602490fd5b9293823b611a8d575b5050505050565b611ad2906001600160a01b038094169560405194859481630a85bd0160e11b988988521660048701521660248501526044840152608060648401526084830190611717565b03906020816000938185885af190829082611b52575b5050611b205782611af76119c3565b8051919082611b1957604051633250574960e11b815260048101839052602490fd5b6020915001fd5b6001600160e01b03191603611b3a57503880808080611a86565b60249060405190633250574960e11b82526004820152fd5b909192506020813d602011611b93575b81611b6f602093836117d4565b810103126101ee5751906001600160e01b031982168203610d665750903880611ae8565b3d9150611b62565b604051906060820182811067ffffffffffffffff8211176117be57604052604082527f6768696a6b6c6d6e6f707172737475767778797a303132333435363738392b2f6040837f4142434445464748494a4b4c4d4e4f505152535455565758595a61626364656660208201520152565b90611c15826117f6565b611c2260405191826117d4565b8281528092611c33601f19916117f6565b0190602036910137565b806000917a184f03e93ff9f4daa797ed6e38ed64bf6a1f01000000000000000080821015611d80575b506d04ee2d6d415b85acef810000000080831015611d71575b50662386f26fc1000080831015611d62575b506305f5e10080831015611d53575b5061271080831015611d44575b506064821015611d34575b600a80921015611d2a575b600190816021611cd560018701611c0b565b95860101905b611ce7575b5050505090565b600019019083907f30313233343536373839616263646566000000000000000000000000000000008282061a835304918215611d2557919082611cdb565b611ce0565b9160010191611cc3565b9190606460029104910191611cb8565b60049193920491019138611cad565b60089193920491019138611ca0565b60109193920491019138611c91565b60209193920491019138611c7f565b604093508104915038611c66565b919091805115611e905780519260029160028501809511611e7a5760038095046001600160fe1b0381168103611e7a57611dcd9060029694961b611c0b565b926020840192829183518401976020890192835194600085525b8a8110611e2d57505050506003939495965052510680600114611e1a57600214611e0f575090565b603d90600019015390565b50603d9081600019820153600119015390565b836004919b989b019a8b51600190603f9082828260121c16870101518453828282600c1c16870101518385015382828260061c168701015187850153168401015185820153019699611de7565b634e487b7160e01b600052601160045260246000fd5b509050604051611e9f816117a2565b6000815290565b919091805115611e905780519260029160028501809511611e7a5760038095046001600160fe1b0381168103611e7a57611ee59060029694961b611c0b565b926020840192829183518401976020890192835194600085525b8a8110611f2757505050506003939495965052510680600114611e1a57600214611e0f575090565b836004919b989b019a8b51600190603f9082828260121c16870101518453828282600c1c16870101518385015382828260061c168701015187850153168401015185820153019699611eff56fea2646970667358221220a51d08b5068556183753cf76b197ae188c624ff69b4959ba59614273871d802064736f6c63430008180033","opcodes":"PUSH1 0xA0 CALLVALUE PUSH3 0x3FF JUMPI PUSH1 0x1F SWAP1 PUSH1 0x1F NOT SWAP1 PUSH1 0x1 PUSH1 0x1 PUSH1 0x40 SHL SUB PUSH3 0x23CF CODESIZE DUP2 SWAP1 SUB DUP6 DUP2 ADD DUP6 AND DUP5 ADD DUP4 DUP2 GT DUP6 DUP3 LT OR PUSH3 0x3E9 JUMPI DUP5 SWAP3 DUP3 SWAP2 PUSH1 0x40 MSTORE DUP4 CODECOPY PUSH1 0x20 SWAP4 DUP5 SWAP2 DUP2 ADD SUB SLT PUSH3 0x3FF JUMPI MLOAD SWAP4 PUSH1 0x1 PUSH1 0x1 PUSH1 0xA0 SHL SUB SWAP4 DUP5 DUP7 AND SWAP3 DUP4 DUP8 SUB PUSH3 0x3FF JUMPI PUSH3 0x69 PUSH3 0x404 JUMP JUMPDEST SWAP3 PUSH1 0x10 DUP5 MSTORE PUSH16 0x42617365204C75636B79204C6F74746F PUSH1 0x80 SHL DUP7 DUP6 ADD MSTORE PUSH3 0x90 PUSH3 0x404 JUMP JUMPDEST PUSH1 0x3 DUP2 MSTORE PUSH3 0x109313 PUSH1 0xEA SHL DUP8 DUP3 ADD MSTORE DUP5 MLOAD SWAP4 DUP4 DUP6 GT PUSH3 0x3E9 JUMPI PUSH1 0x0 SWAP5 DUP6 SLOAD SWAP7 PUSH1 0x1 SWAP8 DUP9 DUP2 DUP2 SHR SWAP2 AND DUP1 ISZERO PUSH3 0x3DE JUMPI JUMPDEST DUP12 DUP3 LT EQ PUSH3 0x3CA JUMPI SWAP1 DUP2 DUP7 DUP5 SWAP4 GT PUSH3 0x377 JUMPI JUMPDEST POP DUP11 SWAP1 DUP7 DUP4 GT PUSH1 0x1 EQ PUSH3 0x314 JUMPI DUP9 SWAP3 PUSH3 0x308 JUMPI JUMPDEST POP POP PUSH1 0x0 NOT PUSH1 0x3 DUP4 SWAP1 SHL SHR NOT AND SWAP1 DUP8 SHL OR DUP6 SSTORE JUMPDEST DUP2 MLOAD SWAP4 DUP5 GT PUSH3 0x2F4 JUMPI DUP6 SLOAD DUP7 DUP2 DUP2 SHR SWAP2 AND DUP1 ISZERO PUSH3 0x2E9 JUMPI JUMPDEST DUP10 DUP3 LT EQ PUSH3 0x2D5 JUMPI SWAP1 DUP2 DUP5 DUP7 SWAP6 SWAP5 SWAP4 GT PUSH3 0x27E JUMPI JUMPDEST POP DUP9 SWAP3 DUP5 GT PUSH1 0x1 EQ PUSH3 0x21D JUMPI POP DUP5 SWAP3 PUSH3 0x211 JUMPI JUMPDEST POP POP PUSH1 0x0 NOT PUSH1 0x3 DUP4 SWAP1 SHL SHR NOT AND SWAP1 DUP4 SHL OR DUP3 SSTORE JUMPDEST CALLER ISZERO PUSH3 0x1F9 JUMPI PUSH1 0x6 SLOAD SWAP1 CALLER PUSH1 0x1 DUP1 PUSH1 0xA0 SHL SUB NOT DUP4 AND OR PUSH1 0x6 SSTORE PUSH32 0x8BE0079C531659141344CD1FD0A4F28419497F9722A3DAAFE3B4186F6B6457E0 PUSH1 0x40 MLOAD SWAP7 CALLER SWAP4 AND SWAP2 DUP1 LOG3 PUSH1 0x7 SSTORE ISZERO PUSH3 0x1CD JUMPI DUP3 PUSH1 0x80 MSTORE PUSH1 0x40 MLOAD PUSH2 0x1FAA SWAP1 DUP2 PUSH3 0x425 DUP3 CODECOPY PUSH1 0x80 MLOAD DUP2 DUP2 DUP2 PUSH2 0x10DB ADD MSTORE PUSH2 0x117F ADD MSTORE RETURN JUMPDEST PUSH3 0x461BCD PUSH1 0xE5 SHL DUP3 MSTORE PUSH1 0x4 DUP3 ADD MSTORE PUSH1 0x8 PUSH1 0x24 DUP3 ADD MSTORE PUSH8 0x7061796F75743D3 PUSH1 0xC4 SHL PUSH1 0x44 DUP3 ADD MSTORE PUSH1 0x64 SWAP2 POP REVERT JUMPDEST PUSH1 0x24 SWAP1 PUSH1 0x40 MLOAD SWAP1 PUSH4 0x1E4FBDF7 PUSH1 0xE0 SHL DUP3 MSTORE PUSH1 0x4 DUP3 ADD MSTORE REVERT JUMPDEST ADD MLOAD SWAP1 POP CODESIZE DUP1 PUSH3 0x147 JUMP JUMPDEST DUP7 DUP7 MSTORE DUP9 DUP7 KECCAK256 DUP8 SWAP6 SWAP1 SWAP4 SWAP3 SWAP2 AND DUP7 JUMPDEST DUP11 DUP3 DUP3 LT PUSH3 0x267 JUMPI POP POP DUP5 GT PUSH3 0x24D JUMPI JUMPDEST POP POP POP DUP2 SHL ADD DUP3 SSTORE PUSH3 0x15B JUMP JUMPDEST ADD MLOAD PUSH1 0x0 NOT PUSH1 0xF8 DUP5 PUSH1 0x3 SHL AND SHR NOT AND SWAP1 SSTORE CODESIZE DUP1 DUP1 PUSH3 0x23F JUMP JUMPDEST DUP4 DUP6 ADD MLOAD DUP7 SSTORE DUP10 SWAP8 SWAP1 SWAP6 ADD SWAP5 SWAP4 DUP5 ADD SWAP4 ADD PUSH3 0x22C JUMP JUMPDEST SWAP1 SWAP2 SWAP3 SWAP4 POP DUP7 DUP7 MSTORE DUP9 DUP7 KECCAK256 DUP5 DUP1 DUP8 ADD PUSH1 0x5 SHR DUP3 ADD SWAP3 DUP12 DUP9 LT PUSH3 0x2CB JUMPI JUMPDEST SWAP2 DUP8 SWAP7 DUP11 SWAP3 SWAP7 SWAP6 SWAP5 SWAP4 ADD PUSH1 0x5 SHR ADD SWAP2 JUMPDEST DUP3 DUP2 LT PUSH3 0x2BC JUMPI POP POP PUSH3 0x131 JUMP JUMPDEST DUP9 DUP2 SSTORE DUP8 SWAP7 POP DUP10 SWAP2 ADD PUSH3 0x2AC JUMP JUMPDEST SWAP3 POP DUP2 SWAP3 PUSH3 0x29C JUMP JUMPDEST PUSH4 0x4E487B71 PUSH1 0xE0 SHL DUP7 MSTORE PUSH1 0x22 PUSH1 0x4 MSTORE PUSH1 0x24 DUP7 REVERT JUMPDEST SWAP1 PUSH1 0x7F AND SWAP1 PUSH3 0x11A JUMP JUMPDEST PUSH4 0x4E487B71 PUSH1 0xE0 SHL DUP6 MSTORE PUSH1 0x41 PUSH1 0x4 MSTORE PUSH1 0x24 DUP6 REVERT JUMPDEST ADD MLOAD SWAP1 POP CODESIZE DUP1 PUSH3 0xEC JUMP JUMPDEST SWAP1 DUP5 DUP11 SWAP5 AND SWAP2 DUP10 DUP1 MSTORE DUP13 DUP11 KECCAK256 SWAP3 DUP14 DUP12 SWAP1 JUMPDEST DUP3 DUP3 LT PUSH3 0x35F JUMPI POP POP DUP5 GT PUSH3 0x345 JUMPI JUMPDEST POP POP POP DUP2 SHL ADD DUP6 SSTORE PUSH3 0x100 JUMP JUMPDEST ADD MLOAD PUSH1 0x0 NOT PUSH1 0xF8 DUP5 PUSH1 0x3 SHL AND SHR NOT AND SWAP1 SSTORE CODESIZE DUP1 DUP1 PUSH3 0x337 JUMP JUMPDEST DUP4 DUP6 ADD MLOAD DUP7 SSTORE DUP14 SWAP8 SWAP1 SWAP6 ADD SWAP5 SWAP4 DUP5 ADD SWAP4 ADD DUP15 PUSH3 0x325 JUMP JUMPDEST SWAP1 SWAP2 POP DUP8 DUP1 MSTORE DUP11 DUP9 KECCAK256 DUP7 DUP1 DUP6 ADD PUSH1 0x5 SHR DUP3 ADD SWAP3 DUP14 DUP7 LT PUSH3 0x3C0 JUMPI JUMPDEST SWAP2 DUP12 SWAP2 DUP7 SWAP6 SWAP5 SWAP4 ADD PUSH1 0x5 SHR ADD SWAP2 JUMPDEST DUP3 DUP2 LT PUSH3 0x3B1 JUMPI POP POP PUSH3 0xD6 JUMP JUMPDEST DUP11 DUP2 SSTORE DUP6 SWAP5 POP DUP12 SWAP2 ADD PUSH3 0x3A1 JUMP JUMPDEST SWAP3 POP DUP2 SWAP3 PUSH3 0x393 JUMP JUMPDEST PUSH4 0x4E487B71 PUSH1 0xE0 SHL DUP9 MSTORE PUSH1 0x22 PUSH1 0x4 MSTORE PUSH1 0x24 DUP9 REVERT JUMPDEST SWAP1 PUSH1 0x7F AND SWAP1 PUSH3 0xC1 JUMP JUMPDEST PUSH4 0x4E487B71 PUSH1 0xE0 SHL PUSH1 0x0 MSTORE PUSH1 0x41 PUSH1 0x4 MSTORE PUSH1 0x24 PUSH1 0x0 REVERT JUMPDEST PUSH1 0x0 DUP1 REVERT JUMPDEST PUSH1 0x40 DUP1 MLOAD SWAP2 SWAP1 DUP3 ADD PUSH1 0x1 PUSH1 0x1 PUSH1 0x40 SHL SUB DUP2 GT DUP4 DUP3 LT OR PUSH3 0x3E9 JUMPI PUSH1 0x40 MSTORE JUMP INVALID PUSH1 0x80 PUSH1 0x40 DUP2 DUP2 MSTORE PUSH1 0x4 DUP1 CALLDATASIZE LT ISZERO PUSH2 0x15 JUMPI PUSH1 0x0 DUP1 REVERT JUMPDEST PUSH1 0x0 SWAP3 DUP4 CALLDATALOAD PUSH1 0xE0 SHR SWAP1 DUP2 PUSH4 0x1FFC9A7 EQ PUSH2 0x1688 JUMPI POP DUP1 PUSH4 0x6FDDE03 EQ PUSH2 0x15BB JUMPI DUP1 PUSH4 0x81812FC EQ PUSH2 0x1582 JUMPI DUP1 PUSH4 0x95EA7B3 EQ PUSH2 0x14A8 JUMPI DUP1 PUSH4 0x1249C58B EQ PUSH2 0x122F JUMPI DUP1 PUSH4 0x23B872DD EQ PUSH2 0x1217 JUMPI DUP1 PUSH4 0x32CB6B0C EQ PUSH2 0x11FA JUMPI DUP1 PUSH4 0x3CCFD60B EQ PUSH2 0x115E JUMPI DUP1 PUSH4 0x42842E0E EQ PUSH2 0x112F JUMPI DUP1 PUSH4 0x6352211E EQ PUSH2 0x10FF JUMPI DUP1 PUSH4 0x63BD1D4A EQ PUSH2 0x10BB JUMPI DUP1 PUSH4 0x70A08231 EQ PUSH2 0x1066 JUMPI DUP1 PUSH4 0x715018A6 EQ PUSH2 0x1012 JUMPI DUP1 PUSH4 0x8DA5CB5B EQ PUSH2 0xFEA JUMPI DUP1 PUSH4 0x95D89B41 EQ PUSH2 0xEDF JUMPI DUP1 PUSH4 0xA22CB465 EQ PUSH2 0xE3E JUMPI DUP1 PUSH4 0xA2309FF8 EQ PUSH2 0xE1F JUMPI DUP1 PUSH4 0xB88D4FDE EQ PUSH2 0xD8A JUMPI DUP1 PUSH4 0xC002D23D EQ PUSH2 0xD69 JUMPI DUP1 PUSH4 0xC87B56DD EQ PUSH2 0x1F2 JUMPI DUP1 PUSH4 0xE985E9C5 EQ PUSH2 0x1A0 JUMPI PUSH4 0xF2FDE38B EQ PUSH2 0x115 JUMPI PUSH1 0x0 DUP1 REVERT JUMPDEST CALLVALUE PUSH2 0x19C JUMPI PUSH1 0x20 CALLDATASIZE PUSH1 0x3 NOT ADD SLT PUSH2 0x19C JUMPI PUSH2 0x12E PUSH2 0x173C JUMP JUMPDEST SWAP1 PUSH2 0x137 PUSH2 0x1A51 JUMP JUMPDEST PUSH1 0x1 PUSH1 0x1 PUSH1 0xA0 SHL SUB DUP1 SWAP3 AND SWAP3 DUP4 ISZERO PUSH2 0x186 JUMPI POP POP PUSH1 0x6 SLOAD DUP3 PUSH1 0x1 PUSH1 0x1 PUSH1 0xA0 SHL SUB NOT DUP3 AND OR PUSH1 0x6 SSTORE AND PUSH32 0x8BE0079C531659141344CD1FD0A4F28419497F9722A3DAAFE3B4186F6B6457E0 DUP4 DUP1 LOG3 DUP1 RETURN JUMPDEST MLOAD PUSH4 0x1E4FBDF7 PUSH1 0xE0 SHL DUP2 MSTORE SWAP1 DUP2 ADD DUP5 SWAP1 MSTORE PUSH1 0x24 SWAP1 REVERT JUMPDEST DUP3 DUP1 REVERT JUMPDEST POP POP CALLVALUE PUSH2 0x1EE JUMPI DUP1 PUSH1 0x3 NOT CALLDATASIZE ADD SLT PUSH2 0x1EE JUMPI PUSH1 0xFF DUP2 PUSH1 0x20 SWAP4 PUSH2 0x1C0 PUSH2 0x173C JUMP JUMPDEST PUSH2 0x1C8 PUSH2 0x1757 JUMP JUMPDEST PUSH1 0x1 PUSH1 0x1 PUSH1 0xA0 SHL SUB SWAP2 DUP3 AND DUP4 MSTORE PUSH1 0x5 DUP8 MSTORE DUP4 DUP4 KECCAK256 SWAP2 AND DUP3 MSTORE DUP6 MSTORE KECCAK256 SLOAD SWAP2 MLOAD SWAP2 AND ISZERO ISZERO DUP2 MSTORE RETURN JUMPDEST POP DUP1 REVERT JUMPDEST POP DUP3 SWAP1 CALLVALUE PUSH2 0x1EE JUMPI PUSH1 0x20 SWAP2 DUP3 PUSH1 0x3 NOT CALLDATASIZE ADD SLT PUSH2 0xD66 JUMPI POP PUSH2 0xD02 PUSH2 0xD62 SWAP2 CALLDATALOAD PUSH2 0x21A DUP2 PUSH2 0x19F3 JUMP JUMPDEST POP PUSH2 0xCF4 PUSH2 0x11F PUSH2 0xA9B PUSH32 0x30302F737667272077696474683D2739303027206865696768743D2736303027 PUSH2 0xA8D PUSH2 0x6D3 DUP11 DUP11 PUSH2 0x256 DUP10 PUSH2 0x1C3D JUMP JUMPDEST DUP3 MLOAD SWAP6 DUP7 SWAP4 PUSH32 0x3C73766720786D6C6E733D27687474703A2F2F7777772E77332E6F72672F3230 DUP5 DUP7 ADD MSTORE DUP5 ADD MSTORE PUSH32 0x2076696577426F783D273020302039303020363030273E000000000000000000 PUSH1 0x60 DUP5 ADD MSTORE PUSH6 0x1E3232B3399F PUSH1 0xD1 SHL PUSH1 0x77 DUP5 ADD MSTORE PUSH32 0x3C6C696E6561724772616469656E742069643D2767272078313D273027207931 PUSH1 0x7D DUP5 ADD MSTORE PUSH32 0x3D2730272078323D2731272079323D2731273E00000000000000000000000000 PUSH1 0x9D DUP5 ADD MSTORE PUSH32 0x3C73746F70206F66667365743D273025272073746F702D636F6C6F723D272330 PUSH1 0xB0 DUP5 ADD MSTORE PUSH8 0x311898191813979F PUSH1 0xC1 SHL PUSH1 0xD0 DUP5 ADD MSTORE PUSH32 0x3C73746F70206F66667365743D2731303025272073746F702D636F6C6F723D27 PUSH1 0xD8 DUP5 ADD MSTORE PUSH10 0x1198B119309B3113979F PUSH1 0xB1 SHL PUSH1 0xF8 DUP5 ADD MSTORE PUSH32 0x3C2F6C696E6561724772616469656E743E000000000000000000000000000000 PUSH2 0x102 DUP5 ADD MSTORE PUSH32 0x3C66696C7465722069643D27736861646F772720783D272D3230252720793D27 PUSH2 0x113 DUP5 ADD MSTORE PUSH32 0x2D323025272077696474683D273134302527206865696768743D273134302527 PUSH2 0x133 DUP5 ADD MSTORE PUSH1 0x1F PUSH1 0xF9 SHL DUP1 PUSH2 0x153 DUP6 ADD MSTORE PUSH32 0x3C666544726F70536861646F772064783D2730272064793D2738272073746444 PUSH2 0x154 DUP6 ADD MSTORE PUSH32 0x6576696174696F6E3D2731302720666C6F6F642D636F6C6F723D272330303027 PUSH2 0x174 DUP6 ADD MSTORE PUSH32 0x20666C6F6F642D6F7061636974793D27302E3335272F3E000000000000000000 PUSH2 0x194 DUP6 ADD MSTORE PUSH9 0x1E17B334B63A32B91F PUSH1 0xB9 SHL PUSH2 0x1AB DUP6 ADD MSTORE PUSH7 0x1E17B232B3399F PUSH1 0xC9 SHL PUSH2 0x1B4 DUP6 ADD MSTORE PUSH32 0x3C726563742077696474683D2739303027206865696768743D27363030272066 PUSH2 0x1BB DUP6 ADD MSTORE PUSH32 0x696C6C3D2775726C28236729272F3E0000000000000000000000000000000000 PUSH2 0x1DB DUP6 ADD MSTORE PUSH32 0x3C672066696C7465723D2775726C2823736861646F7729273E00000000000000 PUSH2 0x1EA DUP6 ADD MSTORE PUSH32 0x3C7265637420783D2737302720793D273730272077696474683D273736302720 PUSH2 0x203 DUP6 ADD MSTORE PUSH32 0x6865696768743D27343630272072783D273236272066696C6C3D272366376633 PUSH2 0x223 DUP6 ADD MSTORE PUSH5 0x329C13979F PUSH1 0xD9 SHL PUSH2 0x243 DUP6 ADD MSTORE PUSH32 0x3C7265637420783D2737302720793D27313630272077696474683D2737363027 PUSH2 0x248 DUP6 ADD MSTORE PUSH32 0x206865696768743D2732272066696C6C3D272331623261366227206F70616369 PUSH2 0x268 DUP6 ADD MSTORE PUSH11 0x3A3C9E939817191A93979F PUSH1 0xA9 SHL PUSH2 0x288 DUP6 ADD MSTORE PUSH4 0x1E17B39F PUSH1 0xE1 SHL PUSH2 0x293 DUP6 ADD MSTORE PUSH32 0x3C7465787420783D273131302720793D273133302720666F6E742D66616D696C PUSH2 0x297 DUP6 ADD MSTORE PUSH32 0x793D2775692D73616E732D73657269662C2073797374656D2D75692720666F6E DUP1 PUSH2 0x2B7 DUP7 ADD MSTORE PUSH32 0x742D73697A653D273430272066696C6C3D27233062313032302720666F6E742D PUSH2 0x2D7 DUP7 ADD MSTORE PUSH32 0x7765696768743D27373030273E42415345204C55434B59204C4F54544F3C2F74 PUSH2 0x2F7 DUP7 ADD MSTORE PUSH4 0x32BC3A1F PUSH1 0xE1 SHL PUSH2 0x317 DUP7 ADD MSTORE PUSH32 0x3C7465787420783D273131302720793D273231302720666F6E742D66616D696C PUSH2 0x31B DUP7 ADD MSTORE PUSH7 0x1E17BA32BC3A1F PUSH1 0xC9 SHL PUSH32 0x793D2775692D6D6F6E6F73706163652C2053464D6F6E6F2D526567756C61722C SWAP4 DUP5 PUSH2 0x33B DUP9 ADD MSTORE PUSH32 0x204D656E6C6F2C204D6F6E61636F2720666F6E742D73697A653D273232272066 PUSH2 0x35B DUP9 ADD MSTORE PUSH32 0x696C6C3D272330623130323027206F7061636974793D27302E3735273E4F4E2D PUSH2 0x37B DUP9 ADD MSTORE PUSH32 0x434841494E205449434B45543C2F746578743E00000000000000000000000000 PUSH2 0x39B DUP9 ADD MSTORE PUSH32 0x3C7465787420783D273131302720793D273239302720666F6E742D66616D696C PUSH2 0x3AE DUP9 ADD MSTORE DUP5 PUSH2 0x3CE DUP9 ADD MSTORE PUSH32 0x204D656E6C6F2C204D6F6E61636F2720666F6E742D73697A653D273330272066 PUSH2 0x3EE DUP9 ADD MSTORE PUSH32 0x696C6C3D27233062313032302720666F6E742D7765696768743D27373030273E PUSH2 0x40E DUP9 ADD MSTORE PUSH8 0x5449434B45542023 PUSH1 0xC0 SHL PUSH2 0x42E DUP9 ADD MSTORE PUSH2 0x7F0 PUSH2 0x436 SWAP7 DUP3 MLOAD SWAP3 DUP4 SWAP2 DUP10 DUP12 ADD SWAP2 ADD PUSH2 0x16F4 JUMP JUMPDEST DUP7 ADD SWAP5 DUP6 ADD MSTORE PUSH32 0x3C7465787420783D273131302720793D273334302720666F6E742D66616D696C PUSH2 0x43D DUP6 ADD MSTORE DUP1 PUSH2 0x45D DUP6 ADD MSTORE PUSH32 0x742D73697A653D273138272066696C6C3D272330623130323027206F70616369 SWAP1 DUP2 PUSH2 0x47D DUP7 ADD MSTORE PUSH32 0x74793D27302E37273E4E6574776F726B3A20426173653C2F746578743E000000 PUSH2 0x49D DUP7 ADD MSTORE PUSH32 0x3C7465787420783D273131302720793D273337302720666F6E742D66616D696C PUSH2 0x4BA DUP7 ADD MSTORE DUP1 PUSH2 0x4DA DUP7 ADD MSTORE DUP2 PUSH2 0x4FA DUP7 ADD MSTORE PUSH32 0x74793D27302E37273E537570706C793A2033303030206D61783C2F746578743E PUSH2 0x51A DUP7 ADD MSTORE PUSH32 0x3C7465787420783D273131302720793D273430302720666F6E742D66616D696C PUSH2 0x53A DUP7 ADD MSTORE PUSH2 0x55A DUP6 ADD MSTORE PUSH2 0x57A DUP5 ADD MSTORE PUSH32 0x74793D27302E37273E4D696E743A20302E3030303135204554483C2F74657874 PUSH2 0x59A DUP5 ADD MSTORE PUSH2 0x5BA DUP4 ADD MSTORE PUSH32 0x3C636972636C652063783D27373430272063793D273332302720723D27373827 PUSH2 0x5BB DUP4 ADD MSTORE PUSH32 0x2066696C6C3D272331623261366227206F7061636974793D27302E3132272F3E PUSH2 0x5DB DUP4 ADD MSTORE PUSH32 0x3C636972636C652063783D27373630272063793D273333302720723D27353827 PUSH2 0x5FB DUP4 ADD MSTORE PUSH32 0x2066696C6C3D272331623261366227206F7061636974793D27302E3136272F3E PUSH2 0x61B DUP4 ADD MSTORE PUSH32 0x3C7465787420783D273638302720793D273530352720666F6E742D66616D696C PUSH2 0x63B DUP4 ADD MSTORE PUSH2 0x65B DUP3 ADD MSTORE PUSH32 0x204D656E6C6F2C204D6F6E61636F2720666F6E742D73697A653D273134272066 PUSH2 0x67B DUP3 ADD MSTORE PUSH32 0x696C6C3D272330623130323027206F7061636974793D27302E3435273E646174 PUSH2 0x69B DUP3 ADD MSTORE PUSH32 0x613A206F6E2D636861696E3C2F746578743E0000000000000000000000000000 PUSH2 0x6BB DUP3 ADD MSTORE PUSH6 0x1E17B9BB339F PUSH1 0xD1 SHL PUSH2 0x6CD DUP3 ADD MSTORE SUB PUSH2 0x6B3 DUP2 ADD DUP5 MSTORE ADD DUP3 PUSH2 0x17D4 JUMP JUMPDEST PUSH2 0xA95 PUSH2 0x1B9B JUMP JUMPDEST SWAP1 PUSH2 0x1D8E JUMP JUMPDEST SWAP3 DUP8 MLOAD PUSH2 0xAEE PUSH1 0x3A DUP3 DUP11 DUP2 ADD SWAP8 PUSH32 0x646174613A696D6167652F7376672B786D6C3B6261736536342C000000000000 DUP10 MSTORE PUSH2 0xADE DUP13 DUP3 MLOAD SWAP3 DUP4 SWAP2 DUP7 DUP7 ADD SWAP2 ADD PUSH2 0x16F4 JUMP JUMPDEST DUP2 ADD SUB PUSH1 0x1A DUP2 ADD DUP5 MSTORE ADD DUP3 PUSH2 0x17D4 JUMP JUMPDEST PUSH2 0xB00 PUSH2 0xAFA DUP4 PUSH2 0x1C3D JUMP JUMPDEST SWAP3 PUSH2 0x1C3D JUMP JUMPDEST DUP10 MLOAD SWAP6 DUP7 SWAP4 PUSH1 0x7B PUSH1 0xF8 SHL DUP12 DUP7 ADD MSTORE PUSH32 0x226E616D65223A2242617365204C75636B79204C6F74746F2023000000000000 PUSH1 0x21 DUP7 ADD MSTORE PUSH2 0xB47 DUP2 MLOAD DUP1 SWAP3 DUP14 PUSH1 0x3B DUP10 ADD SWAP2 ADD PUSH2 0x16F4 JUMP JUMPDEST DUP5 ADD PUSH2 0xBEB PUSH3 0x8880B PUSH1 0xEA SHL SWAP5 DUP6 PUSH1 0x3B DUP5 ADD MSTORE PUSH32 0x226465736372697074696F6E223A224F6E2D636861696E206C75636B79207469 PUSH1 0x3E DUP5 ADD MSTORE PUSH32 0x636B6574206F6E20426173652E204D696E742070726963652066697865643B20 PUSH1 0x5E DUP5 ADD MSTORE PUSH32 0x737570706C79206361707065642E22202C000000000000000000000000000000 PUSH1 0x7E DUP5 ADD MSTORE PUSH9 0x1134B6B0B3B2911D11 PUSH1 0xB9 SHL PUSH1 0x8F DUP5 ADD MSTORE MLOAD DUP1 SWAP4 PUSH1 0x98 DUP5 ADD SWAP1 PUSH2 0x16F4 JUMP JUMPDEST ADD SWAP2 PUSH1 0x98 DUP4 ADD MSTORE PUSH32 0x2261747472696275746573223A5B000000000000000000000000000000000000 PUSH1 0x9B DUP4 ADD MSTORE PUSH32 0x7B2274726169745F74797065223A22536572696573222C2276616C7565223A22 PUSH1 0xA9 DUP4 ADD MSTORE PUSH10 0x11D95B995CDA5CC89F4B PUSH1 0xB2 SHL PUSH1 0xC9 DUP4 ADD MSTORE PUSH32 0x7B2274726169745F74797065223A224E6574776F726B222C2276616C7565223A PUSH1 0xD3 DUP4 ADD MSTORE PUSH8 0x890985CD9489F4B PUSH1 0xC2 SHL PUSH1 0xF3 DUP4 ADD MSTORE PUSH32 0x7B2274726169745F74797065223A225469636B6574222C2276616C7565223A22 PUSH1 0xFB DUP4 ADD MSTORE PUSH2 0x11B SWAP2 PUSH2 0xCC4 DUP3 MLOAD DUP1 SWAP4 DUP13 DUP7 DUP6 ADD SWAP2 ADD PUSH2 0x16F4 JUMP JUMPDEST ADD SWAP1 PUSH2 0x227D PUSH1 0xF0 SHL SWAP1 DUP3 ADD MSTORE PUSH1 0x5D PUSH1 0xF8 SHL PUSH2 0x11D DUP3 ADD MSTORE PUSH1 0x7D PUSH1 0xF8 SHL PUSH2 0x11E DUP3 ADD MSTORE SUB PUSH1 0xFF DUP2 ADD DUP5 MSTORE ADD DUP3 PUSH2 0x17D4 JUMP JUMPDEST PUSH2 0xCFC PUSH2 0x1B9B JUMP JUMPDEST SWAP1 PUSH2 0x1EA6 JUMP JUMPDEST SWAP3 PUSH2 0xD53 PUSH1 0x3D DUP3 MLOAD DUP1 SWAP7 PUSH32 0x646174613A6170706C69636174696F6E2F6A736F6E3B6261736536342C000000 DUP8 DUP4 ADD MSTORE PUSH2 0xD43 DUP2 MLOAD DUP1 SWAP3 DUP10 DUP7 DUP7 ADD SWAP2 ADD PUSH2 0x16F4 JUMP JUMPDEST DUP2 ADD SUB PUSH1 0x1D DUP2 ADD DUP8 MSTORE ADD DUP6 PUSH2 0x17D4 JUMP JUMPDEST MLOAD SWAP3 DUP3 DUP5 SWAP4 DUP5 MSTORE DUP4 ADD SWAP1 PUSH2 0x1717 JUMP JUMPDEST SUB SWAP1 RETURN JUMPDEST DUP1 REVERT JUMPDEST POP POP CALLVALUE PUSH2 0x1EE JUMPI DUP2 PUSH1 0x3 NOT CALLDATASIZE ADD SLT PUSH2 0x1EE JUMPI PUSH1 0x20 SWAP1 MLOAD PUSH6 0x886C98B76000 DUP2 MSTORE RETURN JUMPDEST POP SWAP1 CALLVALUE PUSH2 0x19C JUMPI PUSH1 0x80 CALLDATASIZE PUSH1 0x3 NOT ADD SLT PUSH2 0x19C JUMPI PUSH2 0xDA5 PUSH2 0x173C JUMP JUMPDEST PUSH2 0xDAD PUSH2 0x1757 JUMP JUMPDEST PUSH1 0x44 CALLDATALOAD SWAP2 DUP6 PUSH1 0x64 CALLDATALOAD SWAP6 PUSH8 0xFFFFFFFFFFFFFFFF DUP8 GT PUSH2 0x1EE JUMPI CALLDATASIZE PUSH1 0x23 DUP9 ADD SLT ISZERO PUSH2 0x1EE JUMPI DUP7 ADD CALLDATALOAD SWAP6 PUSH2 0xDE9 PUSH2 0xDE0 DUP9 PUSH2 0x17F6 JUMP JUMPDEST SWAP7 MLOAD SWAP7 DUP8 PUSH2 0x17D4 JUMP JUMPDEST DUP7 DUP7 MSTORE CALLDATASIZE PUSH1 0x24 DUP9 DUP4 ADD ADD GT PUSH2 0x1EE JUMPI DUP7 PUSH2 0xE1C SWAP8 PUSH1 0x24 PUSH1 0x20 SWAP4 ADD DUP4 DUP10 ADD CALLDATACOPY DUP7 ADD ADD MSTORE PUSH2 0xE16 DUP4 DUP4 DUP4 PUSH2 0x1812 JUMP JUMPDEST CALLER PUSH2 0x1A7D JUMP JUMPDEST DUP1 RETURN JUMPDEST POP POP CALLVALUE PUSH2 0x1EE JUMPI DUP2 PUSH1 0x3 NOT CALLDATASIZE ADD SLT PUSH2 0x1EE JUMPI PUSH1 0x20 SWAP1 PUSH1 0x8 SLOAD SWAP1 MLOAD SWAP1 DUP2 MSTORE RETURN JUMPDEST POP SWAP1 CALLVALUE PUSH2 0x19C JUMPI DUP1 PUSH1 0x3 NOT CALLDATASIZE ADD SLT PUSH2 0x19C JUMPI PUSH2 0xE58 PUSH2 0x173C JUMP JUMPDEST SWAP1 PUSH1 0x24 CALLDATALOAD SWAP2 DUP3 ISZERO ISZERO DUP1 SWAP4 SUB PUSH2 0xEDB JUMPI PUSH1 0x1 PUSH1 0x1 PUSH1 0xA0 SHL SUB AND SWAP3 DUP4 ISZERO PUSH2 0xEC6 JUMPI POP CALLER DUP5 MSTORE PUSH1 0x5 PUSH1 0x20 MSTORE DUP1 DUP5 KECCAK256 DUP4 DUP6 MSTORE PUSH1 0x20 MSTORE DUP1 DUP5 KECCAK256 PUSH1 0xFF NOT DUP2 SLOAD AND PUSH1 0xFF DUP5 AND OR SWAP1 SSTORE MLOAD SWAP1 DUP2 MSTORE PUSH32 0x17307EAB39AB6107E8899845AD3D59BD9653F200F220920489CA2B5937696C31 PUSH1 0x20 CALLER SWAP3 LOG3 DUP1 RETURN JUMPDEST DUP4 PUSH1 0x24 SWAP3 MLOAD SWAP2 PUSH4 0xB611743 PUSH1 0xE3 SHL DUP4 MSTORE DUP3 ADD MSTORE REVERT JUMPDEST DUP5 DUP1 REVERT JUMPDEST POP SWAP2 CALLVALUE PUSH2 0xD66 JUMPI DUP1 PUSH1 0x3 NOT CALLDATASIZE ADD SLT PUSH2 0xD66 JUMPI DUP2 MLOAD SWAP2 DUP2 PUSH1 0x1 SWAP3 PUSH1 0x1 SLOAD SWAP4 DUP5 PUSH1 0x1 SHR SWAP2 PUSH1 0x1 DUP7 AND SWAP6 DUP7 ISZERO PUSH2 0xFE0 JUMPI JUMPDEST PUSH1 0x20 SWAP7 DUP8 DUP6 LT DUP2 EQ PUSH2 0xFCD JUMPI DUP9 SWAP10 POP SWAP7 DUP9 SWAP7 SWAP8 DUP6 DUP3 SWAP11 MSTORE SWAP2 DUP3 PUSH1 0x0 EQ PUSH2 0xFA6 JUMPI POP POP PUSH1 0x1 EQ PUSH2 0xF4A JUMPI JUMPDEST POP POP POP PUSH2 0xD62 SWAP3 SWAP2 PUSH2 0xD53 SWAP2 SUB DUP6 PUSH2 0x17D4 JUMP JUMPDEST SWAP2 SWAP1 DUP7 SWAP4 POP PUSH1 0x1 DUP4 MSTORE PUSH32 0xB10E2D527612073B26EECDFD717E6A320CF44B4AFAC2B0732D9FCBE2B7FA0CF6 JUMPDEST DUP3 DUP5 LT PUSH2 0xF8E JUMPI POP POP POP DUP3 ADD ADD DUP2 PUSH2 0xD53 PUSH2 0xD62 PUSH2 0xF37 JUMP JUMPDEST DUP1 SLOAD DUP5 DUP11 ADD DUP7 ADD MSTORE DUP9 SWAP6 POP DUP8 SWAP5 SWAP1 SWAP4 ADD SWAP3 DUP2 ADD PUSH2 0xF75 JUMP JUMPDEST PUSH1 0xFF NOT AND DUP8 DUP3 ADD MSTORE SWAP4 ISZERO ISZERO PUSH1 0x5 SHL DUP7 ADD SWAP1 SWAP4 ADD SWAP4 POP DUP5 SWAP3 POP PUSH2 0xD53 SWAP2 POP PUSH2 0xD62 SWAP1 POP PUSH2 0xF37 JUMP JUMPDEST PUSH4 0x4E487B71 PUSH1 0xE0 SHL DUP4 MSTORE PUSH1 0x22 DUP11 MSTORE PUSH1 0x24 DUP4 REVERT JUMPDEST SWAP3 PUSH1 0x7F AND SWAP3 PUSH2 0xF0D JUMP JUMPDEST POP POP CALLVALUE PUSH2 0x1EE JUMPI DUP2 PUSH1 0x3 NOT CALLDATASIZE ADD SLT PUSH2 0x1EE JUMPI PUSH1 0x20 SWAP1 PUSH1 0x1 PUSH1 0x1 PUSH1 0xA0 SHL SUB PUSH1 0x6 SLOAD AND SWAP1 MLOAD SWAP1 DUP2 MSTORE RETURN JUMPDEST DUP4 CALLVALUE PUSH2 0xD66 JUMPI DUP1 PUSH1 0x3 NOT CALLDATASIZE ADD SLT PUSH2 0xD66 JUMPI PUSH2 0x102B PUSH2 0x1A51 JUMP JUMPDEST DUP1 PUSH1 0x1 PUSH1 0x1 PUSH1 0xA0 SHL SUB PUSH1 0x6 SLOAD DUP2 NOT DUP2 AND PUSH1 0x6 SSTORE AND PUSH32 0x8BE0079C531659141344CD1FD0A4F28419497F9722A3DAAFE3B4186F6B6457E0 DUP3 DUP1 LOG3 DUP1 RETURN JUMPDEST POP SWAP2 CALLVALUE PUSH2 0xD66 JUMPI PUSH1 0x20 CALLDATASIZE PUSH1 0x3 NOT ADD SLT PUSH2 0xD66 JUMPI PUSH1 0x1 PUSH1 0x1 PUSH1 0xA0 SHL SUB PUSH2 0x1089 PUSH2 0x173C JUMP JUMPDEST AND SWAP3 DUP4 ISZERO PUSH2 0x10A6 JUMPI POP DUP1 PUSH1 0x20 SWAP4 DUP4 SWAP3 MSTORE PUSH1 0x3 DUP5 MSTORE KECCAK256 SLOAD SWAP1 MLOAD SWAP1 DUP2 MSTORE RETURN JUMPDEST SWAP2 MLOAD PUSH4 0x22718AD9 PUSH1 0xE2 SHL DUP2 MSTORE SWAP2 DUP3 ADD MSTORE PUSH1 0x24 SWAP1 REVERT JUMPDEST POP POP CALLVALUE PUSH2 0x1EE JUMPI DUP2 PUSH1 0x3 NOT CALLDATASIZE ADD SLT PUSH2 0x1EE JUMPI PUSH1 0x20 SWAP1 MLOAD PUSH1 0x1 PUSH1 0x1 PUSH1 0xA0 SHL SUB PUSH32 0x0 AND DUP2 MSTORE RETURN JUMPDEST POP SWAP2 CALLVALUE PUSH2 0xD66 JUMPI PUSH1 0x20 CALLDATASIZE PUSH1 0x3 NOT ADD SLT PUSH2 0xD66 JUMPI POP PUSH1 0x1 PUSH1 0x1 PUSH1 0xA0 SHL SUB PUSH2 0x1127 PUSH1 0x20 SWAP4 CALLDATALOAD PUSH2 0x19F3 JUMP JUMPDEST SWAP2 MLOAD SWAP2 AND DUP2 MSTORE RETURN JUMPDEST POP POP CALLVALUE PUSH2 0x1EE JUMPI PUSH2 0xE1C SWAP1 PUSH2 0x1143 CALLDATASIZE PUSH2 0x176D JUMP JUMPDEST SWAP2 SWAP3 MLOAD SWAP3 PUSH2 0x1150 DUP5 PUSH2 0x17A2 JUMP JUMPDEST DUP6 DUP5 MSTORE PUSH2 0xE16 DUP4 DUP4 DUP4 PUSH2 0x1812 JUMP JUMPDEST POP SWAP1 CALLVALUE PUSH2 0x19C JUMPI DUP3 PUSH1 0x3 NOT CALLDATASIZE ADD SLT PUSH2 0x19C JUMPI PUSH2 0x1178 PUSH2 0x1A2E JUMP JUMPDEST DUP3 DUP1 DUP1 DUP1 SELFBALANCE PUSH32 0x0 GAS CALL PUSH2 0x11A8 PUSH2 0x19C3 JUMP JUMPDEST POP ISZERO PUSH2 0x11B7 JUMPI DUP3 PUSH1 0x1 PUSH1 0x7 SSTORE DUP1 RETURN JUMPDEST SWAP1 PUSH1 0x20 PUSH1 0x64 SWAP3 MLOAD SWAP2 PUSH3 0x461BCD PUSH1 0xE5 SHL DUP4 MSTORE DUP3 ADD MSTORE PUSH1 0xF PUSH1 0x24 DUP3 ADD MSTORE PUSH32 0x7769746864726177206661696C65640000000000000000000000000000000000 PUSH1 0x44 DUP3 ADD MSTORE REVERT JUMPDEST POP POP CALLVALUE PUSH2 0x1EE JUMPI DUP2 PUSH1 0x3 NOT CALLDATASIZE ADD SLT PUSH2 0x1EE JUMPI PUSH1 0x20 SWAP1 MLOAD PUSH2 0xBB8 DUP2 MSTORE RETURN JUMPDEST DUP4 CALLVALUE PUSH2 0xD66 JUMPI PUSH2 0xE1C PUSH2 0x1229 CALLDATASIZE PUSH2 0x176D JUMP JUMPDEST SWAP2 PUSH2 0x1812 JUMP JUMPDEST POP SWAP2 SWAP1 DUP2 PUSH1 0x3 NOT CALLDATASIZE ADD SLT PUSH2 0x1EE JUMPI PUSH2 0x1245 PUSH2 0x1A2E JUMP JUMPDEST PUSH6 0x886C98B76000 CALLVALUE SUB PUSH2 0x1499 JUMPI PUSH1 0x8 SLOAD SWAP3 PUSH2 0xBB8 DUP5 LT ISZERO PUSH2 0x148B JUMPI PUSH1 0x0 NOT SWAP4 DUP1 DUP6 EQ PUSH2 0x1478 JUMPI PUSH1 0x1 ADD SWAP3 DUP4 PUSH1 0x8 SSTORE DUP3 MLOAD SWAP1 PUSH2 0x127F DUP3 PUSH2 0x17A2 JUMP JUMPDEST DUP1 DUP3 MSTORE CALLER ISZERO PUSH2 0x1462 JUMPI DUP5 DUP2 MSTORE PUSH1 0x20 SWAP6 PUSH1 0x2 DUP8 MSTORE DUP6 PUSH1 0x1 PUSH1 0x1 PUSH1 0xA0 SHL SUB DUP7 DUP5 KECCAK256 SLOAD AND DUP1 ISZERO ISZERO SWAP3 DUP4 PUSH2 0x142B JUMPI JUMPDEST POP CALLER DUP1 DUP6 MSTORE PUSH1 0x3 DUP11 MSTORE DUP8 DUP6 KECCAK256 DUP1 SLOAD PUSH1 0x1 ADD SWAP1 SSTORE DUP3 DUP6 MSTORE PUSH1 0x2 DUP11 MSTORE DUP8 DUP6 KECCAK256 DUP1 SLOAD PUSH20 0xFFFFFFFFFFFFFFFFFFFFFFFFFFFFFFFFFFFFFFFF NOT AND DUP3 OR SWAP1 SSTORE SWAP1 PUSH32 0xDDF252AD1BE2C89B69C2B068FC378DAA952BA7F163C4A11628F55A4DF523B3EF DUP6 DUP1 LOG4 PUSH2 0x1415 JUMPI CALLER EXTCODESIZE PUSH2 0x1322 JUMPI JUMPDEST POP POP POP PUSH1 0x1 PUSH1 0x7 SSTORE MLOAD SWAP1 DUP2 MSTORE RETURN JUMPDEST DUP4 SWAP5 SWAP3 SWAP5 MLOAD DUP7 DUP2 DUP1 PUSH2 0x135B PUSH4 0xA85BD01 PUSH1 0xE1 SHL SWAP7 DUP8 DUP4 MSTORE CALLER DUP12 DUP5 ADD MSTORE DUP7 PUSH1 0x24 DUP5 ADD MSTORE DUP9 PUSH1 0x44 DUP5 ADD MSTORE PUSH1 0x80 PUSH1 0x64 DUP5 ADD MSTORE PUSH1 0x84 DUP4 ADD SWAP1 PUSH2 0x1717 JUMP JUMPDEST SUB DUP2 DUP6 CALLER GAS CALL SWAP1 DUP3 SWAP1 DUP3 PUSH2 0x13D1 JUMPI JUMPDEST POP POP PUSH2 0x13A0 JUMPI POP POP POP PUSH2 0x137B PUSH2 0x19C3 JUMP JUMPDEST DUP1 MLOAD SWAP4 SWAP1 DUP5 PUSH2 0x139A JUMPI DUP3 MLOAD PUSH4 0x32505749 PUSH1 0xE1 SHL DUP2 MSTORE CALLER DUP2 DUP7 ADD MSTORE PUSH1 0x24 SWAP1 REVERT JUMPDEST DUP5 SWAP3 POP ADD REVERT JUMPDEST SWAP2 SWAP4 SWAP2 PUSH1 0x1 PUSH1 0x1 PUSH1 0xE0 SHL SUB NOT AND SUB PUSH2 0x13BB JUMPI POP CODESIZE DUP1 DUP1 PUSH2 0x1314 JUMP JUMPDEST PUSH1 0x24 SWAP2 MLOAD SWAP1 PUSH4 0x32505749 PUSH1 0xE1 SHL DUP3 MSTORE CALLER SWAP1 DUP3 ADD MSTORE REVERT JUMPDEST SWAP1 SWAP2 SWAP3 POP DUP8 DUP2 DUP2 RETURNDATASIZE DUP4 GT PUSH2 0x140E JUMPI JUMPDEST PUSH2 0x13EA DUP2 DUP4 PUSH2 0x17D4 JUMP JUMPDEST DUP2 ADD SUB SLT PUSH2 0x1EE JUMPI MLOAD SWAP1 PUSH1 0x1 PUSH1 0x1 PUSH1 0xE0 SHL SUB NOT DUP3 AND DUP3 SUB PUSH2 0xD66 JUMPI POP SWAP1 CODESIZE DUP1 PUSH2 0x136A JUMP JUMPDEST POP RETURNDATASIZE PUSH2 0x13E0 JUMP JUMPDEST SWAP1 POP PUSH1 0x24 SWAP3 MLOAD SWAP2 PUSH4 0x39E35637 PUSH1 0xE1 SHL DUP4 MSTORE DUP3 ADD MSTORE REVERT JUMPDEST PUSH2 0x144C DUP4 PUSH1 0x0 MSTORE PUSH1 0x4 PUSH1 0x20 MSTORE PUSH1 0x40 PUSH1 0x0 KECCAK256 PUSH1 0x1 PUSH1 0x1 PUSH1 0xA0 SHL SUB NOT DUP2 SLOAD AND SWAP1 SSTORE JUMP JUMPDEST DUP2 DUP6 MSTORE PUSH1 0x3 DUP11 MSTORE DUP8 DUP6 KECCAK256 SWAP1 DUP2 SLOAD ADD SWAP1 SSTORE CODESIZE PUSH2 0x12AA JUMP JUMPDEST SWAP1 POP PUSH1 0x24 SWAP3 MLOAD SWAP2 PUSH4 0x32505749 PUSH1 0xE1 SHL DUP4 MSTORE DUP3 ADD MSTORE REVERT JUMPDEST PUSH4 0x4E487B71 PUSH1 0xE0 SHL DUP5 MSTORE PUSH1 0x11 DUP3 MSTORE PUSH1 0x24 DUP5 REVERT JUMPDEST SWAP1 MLOAD PUSH4 0x52DF9FE5 PUSH1 0xE0 SHL DUP2 MSTORE REVERT JUMPDEST MLOAD PUSH4 0x26352407 PUSH1 0xE2 SHL DUP2 MSTORE SWAP1 POP REVERT JUMPDEST POP SWAP1 CALLVALUE PUSH2 0x19C JUMPI DUP1 PUSH1 0x3 NOT CALLDATASIZE ADD SLT PUSH2 0x19C JUMPI PUSH2 0x14C2 PUSH2 0x173C JUMP JUMPDEST SWAP2 PUSH1 0x24 CALLDATALOAD PUSH2 0x14CF DUP2 PUSH2 0x19F3 JUMP JUMPDEST CALLER ISZERO ISZERO DUP1 PUSH2 0x156F JUMPI JUMPDEST DUP1 PUSH2 0x1547 JUMPI JUMPDEST PUSH2 0x1531 JUMPI DUP2 SWAP1 PUSH1 0x1 PUSH1 0x1 PUSH1 0xA0 SHL SUB DUP1 SWAP7 AND SWAP6 DUP7 SWAP2 AND PUSH32 0x8C5BE1E5EBEC7D5BD14F71427D1E84F3DD0314C0F7B2291E5B200AC8C7C3B925 DUP9 DUP1 LOG4 DUP5 MSTORE PUSH1 0x20 MSTORE DUP3 KECCAK256 SWAP1 PUSH1 0x1 PUSH1 0x1 PUSH1 0xA0 SHL SUB NOT DUP3 SLOAD AND OR SWAP1 SSTORE DUP1 RETURN JUMPDEST DUP4 MLOAD PUSH4 0xA9FBF51F PUSH1 0xE0 SHL DUP2 MSTORE CALLER DUP2 DUP6 ADD MSTORE PUSH1 0x24 SWAP1 REVERT JUMPDEST POP PUSH1 0x1 PUSH1 0x1 PUSH1 0xA0 SHL SUB DUP2 AND DUP7 MSTORE PUSH1 0x5 PUSH1 0x20 MSTORE DUP4 DUP7 KECCAK256 CALLER DUP8 MSTORE PUSH1 0x20 MSTORE PUSH1 0xFF DUP5 DUP8 KECCAK256 SLOAD AND ISZERO PUSH2 0x14DE JUMP JUMPDEST POP CALLER PUSH1 0x1 PUSH1 0x1 PUSH1 0xA0 SHL SUB DUP3 AND EQ ISZERO PUSH2 0x14D8 JUMP JUMPDEST POP CALLVALUE PUSH2 0x19C JUMPI PUSH1 0x20 CALLDATASIZE PUSH1 0x3 NOT ADD SLT PUSH2 0x19C JUMPI DUP2 PUSH1 0x20 SWAP4 DUP3 PUSH1 0x1 PUSH1 0x1 PUSH1 0xA0 SHL SUB SWAP4 CALLDATALOAD PUSH2 0x15AC DUP2 PUSH2 0x19F3 JUMP JUMPDEST POP DUP3 MSTORE DUP6 MSTORE KECCAK256 SLOAD AND SWAP1 MLOAD SWAP1 DUP2 MSTORE RETURN JUMPDEST POP SWAP2 CALLVALUE PUSH2 0xD66 JUMPI DUP1 PUSH1 0x3 NOT CALLDATASIZE ADD SLT PUSH2 0xD66 JUMPI DUP2 MLOAD SWAP2 DUP2 DUP3 SLOAD SWAP3 PUSH1 0x1 DUP5 PUSH1 0x1 SHR SWAP2 PUSH1 0x1 DUP7 AND SWAP6 DUP7 ISZERO PUSH2 0x167E JUMPI JUMPDEST PUSH1 0x20 SWAP7 DUP8 DUP6 LT DUP2 EQ PUSH2 0xFCD JUMPI DUP9 SWAP10 POP SWAP7 DUP9 SWAP7 SWAP8 DUP6 DUP3 SWAP11 MSTORE SWAP2 DUP3 PUSH1 0x0 EQ PUSH2 0xFA6 JUMPI POP POP PUSH1 0x1 EQ PUSH2 0x1623 JUMPI POP POP POP PUSH2 0xD62 SWAP3 SWAP2 PUSH2 0xD53 SWAP2 SUB DUP6 PUSH2 0x17D4 JUMP JUMPDEST SWAP2 SWAP1 DUP7 SWAP4 POP DUP3 DUP1 MSTORE PUSH32 0x290DECD9548B62A8D60345A988386FC84BA6BC95484008F6362F93160EF3E563 JUMPDEST DUP3 DUP5 LT PUSH2 0x1666 JUMPI POP POP POP DUP3 ADD ADD DUP2 PUSH2 0xD53 PUSH2 0xD62 PUSH2 0xF37 JUMP JUMPDEST DUP1 SLOAD DUP5 DUP11 ADD DUP7 ADD MSTORE DUP9 SWAP6 POP DUP8 SWAP5 SWAP1 SWAP4 ADD SWAP3 DUP2 ADD PUSH2 0x164D JUMP JUMPDEST SWAP3 PUSH1 0x7F AND SWAP3 PUSH2 0x15E7 JUMP JUMPDEST SWAP3 POP POP CALLVALUE PUSH2 0x19C JUMPI PUSH1 0x20 CALLDATASIZE PUSH1 0x3 NOT ADD SLT PUSH2 0x19C JUMPI CALLDATALOAD PUSH4 0xFFFFFFFF PUSH1 0xE0 SHL DUP2 AND DUP1 SWAP2 SUB PUSH2 0x19C JUMPI PUSH1 0x20 SWAP3 POP PUSH4 0x80AC58CD PUSH1 0xE0 SHL DUP2 EQ SWAP1 DUP2 ISZERO PUSH2 0x16E3 JUMPI JUMPDEST DUP2 ISZERO PUSH2 0x16D2 JUMPI JUMPDEST POP ISZERO ISZERO DUP2 MSTORE RETURN JUMPDEST PUSH4 0x1FFC9A7 PUSH1 0xE0 SHL EQ SWAP1 POP CODESIZE PUSH2 0x16CB JUMP JUMPDEST PUSH4 0x5B5E139F PUSH1 0xE0 SHL DUP2 EQ SWAP2 POP PUSH2 0x16C4 JUMP JUMPDEST PUSH1 0x0 JUMPDEST DUP4 DUP2 LT PUSH2 0x1707 JUMPI POP POP PUSH1 0x0 SWAP2 ADD MSTORE JUMP JUMPDEST DUP2 DUP2 ADD MLOAD DUP4 DUP3 ADD MSTORE PUSH1 0x20 ADD PUSH2 0x16F7 JUMP JUMPDEST SWAP1 PUSH1 0x20 SWAP2 PUSH2 0x1730 DUP2 MLOAD DUP1 SWAP3 DUP2 DUP6 MSTORE DUP6 DUP1 DUP7 ADD SWAP2 ADD PUSH2 0x16F4 JUMP JUMPDEST PUSH1 0x1F ADD PUSH1 0x1F NOT AND ADD ADD SWAP1 JUMP JUMPDEST PUSH1 0x4 CALLDATALOAD SWAP1 PUSH1 0x1 PUSH1 0x1 PUSH1 0xA0 SHL SUB DUP3 AND DUP3 SUB PUSH2 0x1752 JUMPI JUMP JUMPDEST PUSH1 0x0 DUP1 REVERT JUMPDEST PUSH1 0x24 CALLDATALOAD SWAP1 PUSH1 0x1 PUSH1 0x1 PUSH1 0xA0 SHL SUB DUP3 AND DUP3 SUB PUSH2 0x1752 JUMPI JUMP JUMPDEST PUSH1 0x60 SWAP1 PUSH1 0x3 NOT ADD SLT PUSH2 0x1752 JUMPI PUSH1 0x1 PUSH1 0x1 PUSH1 0xA0 SHL SUB SWAP1 PUSH1 0x4 CALLDATALOAD DUP3 DUP2 AND DUP2 SUB PUSH2 0x1752 JUMPI SWAP2 PUSH1 0x24 CALLDATALOAD SWAP1 DUP2 AND DUP2 SUB PUSH2 0x1752 JUMPI SWAP1 PUSH1 0x44 CALLDATALOAD SWAP1 JUMP JUMPDEST PUSH1 0x20 DUP2 ADD SWAP1 DUP2 LT PUSH8 0xFFFFFFFFFFFFFFFF DUP3 GT OR PUSH2 0x17BE JUMPI PUSH1 0x40 MSTORE JUMP JUMPDEST PUSH4 0x4E487B71 PUSH1 0xE0 SHL PUSH1 0x0 MSTORE PUSH1 0x41 PUSH1 0x4 MSTORE PUSH1 0x24 PUSH1 0x0 REVERT JUMPDEST SWAP1 PUSH1 0x1F DUP1 NOT SWAP2 ADD AND DUP2 ADD SWAP1 DUP2 LT PUSH8 0xFFFFFFFFFFFFFFFF DUP3 GT OR PUSH2 0x17BE JUMPI PUSH1 0x40 MSTORE JUMP JUMPDEST PUSH8 0xFFFFFFFFFFFFFFFF DUP2 GT PUSH2 0x17BE JUMPI PUSH1 0x1F ADD PUSH1 0x1F NOT AND PUSH1 0x20 ADD SWAP1 JUMP JUMPDEST SWAP1 SWAP2 PUSH1 0x1 PUSH1 0x1 PUSH1 0xA0 SHL SUB DUP1 SWAP4 AND SWAP3 DUP4 ISZERO PUSH2 0x19AA JUMPI PUSH1 0x0 SWAP3 DUP3 DUP5 MSTORE DUP3 PUSH1 0x20 SWAP6 PUSH1 0x2 DUP8 MSTORE PUSH1 0x40 SWAP7 DUP5 DUP9 DUP9 KECCAK256 SLOAD AND SWAP7 DUP8 SWAP2 CALLER ISZERO ISZERO DUP1 PUSH2 0x1914 JUMPI JUMPDEST POP SWAP1 PUSH1 0x2 PUSH32 0xDDF252AD1BE2C89B69C2B068FC378DAA952BA7F163C4A11628F55A4DF523B3EF SWAP3 DUP5 PUSH2 0x18DC JUMPI JUMPDEST DUP6 DUP4 MSTORE PUSH1 0x3 DUP2 MSTORE DUP12 DUP4 KECCAK256 DUP1 SLOAD PUSH1 0x1 ADD SWAP1 SSTORE DUP7 DUP4 MSTORE MSTORE DUP10 DUP2 KECCAK256 DUP1 SLOAD PUSH20 0xFFFFFFFFFFFFFFFFFFFFFFFFFFFFFFFFFFFFFFFF NOT AND DUP6 OR SWAP1 SSTORE DUP1 LOG4 AND SWAP3 DUP4 DUP4 SUB PUSH2 0x18BB JUMPI POP POP POP POP JUMP JUMPDEST PUSH1 0x64 SWAP5 POP MLOAD SWAP3 PUSH4 0x64283D7B PUSH1 0xE0 SHL DUP5 MSTORE PUSH1 0x4 DUP5 ADD MSTORE PUSH1 0x24 DUP4 ADD MSTORE PUSH1 0x44 DUP3 ADD MSTORE REVERT JUMPDEST PUSH2 0x18FD DUP8 PUSH1 0x0 MSTORE PUSH1 0x4 PUSH1 0x20 MSTORE PUSH1 0x40 PUSH1 0x0 KECCAK256 PUSH1 0x1 PUSH1 0x1 PUSH1 0xA0 SHL SUB NOT DUP2 SLOAD AND SWAP1 SSTORE JUMP JUMPDEST DUP5 DUP4 MSTORE PUSH1 0x3 DUP2 MSTORE DUP12 DUP4 KECCAK256 DUP1 SLOAD PUSH1 0x0 NOT ADD SWAP1 SSTORE PUSH2 0x1875 JUMP JUMPDEST SWAP2 SWAP4 SWAP5 POP SWAP2 POP DUP1 PUSH2 0x1969 JUMPI JUMPDEST ISZERO PUSH2 0x1930 JUMPI DUP6 SWAP3 SWAP2 DUP8 SWAP2 CODESIZE PUSH2 0x1849 JUMP JUMPDEST DUP8 DUP7 DUP9 PUSH2 0x194D JUMPI PUSH1 0x24 SWAP2 MLOAD SWAP1 PUSH4 0x7E273289 PUSH1 0xE0 SHL DUP3 MSTORE PUSH1 0x4 DUP3 ADD MSTORE REVERT JUMPDEST PUSH1 0x44 SWAP2 MLOAD SWAP1 PUSH4 0x177E802F PUSH1 0xE0 SHL DUP3 MSTORE CALLER PUSH1 0x4 DUP4 ADD MSTORE PUSH1 0x24 DUP3 ADD MSTORE REVERT JUMPDEST POP CALLER DUP8 EQ DUP1 ISZERO PUSH2 0x198E JUMPI JUMPDEST DUP1 PUSH2 0x1920 JUMPI POP DUP6 DUP3 MSTORE PUSH1 0x4 DUP2 MSTORE CALLER DUP6 DUP10 DUP5 KECCAK256 SLOAD AND EQ PUSH2 0x1920 JUMP JUMPDEST POP DUP7 DUP3 MSTORE PUSH1 0x5 DUP2 MSTORE DUP8 DUP3 KECCAK256 CALLER DUP4 MSTORE DUP2 MSTORE PUSH1 0xFF DUP9 DUP4 KECCAK256 SLOAD AND PUSH2 0x1974 JUMP JUMPDEST PUSH1 0x40 MLOAD PUSH4 0x32505749 PUSH1 0xE1 SHL DUP2 MSTORE PUSH1 0x0 PUSH1 0x4 DUP3 ADD MSTORE PUSH1 0x24 SWAP1 REVERT JUMPDEST RETURNDATASIZE ISZERO PUSH2 0x19EE JUMPI RETURNDATASIZE SWAP1 PUSH2 0x19D4 DUP3 PUSH2 0x17F6 JUMP JUMPDEST SWAP2 PUSH2 0x19E2 PUSH1 0x40 MLOAD SWAP4 DUP5 PUSH2 0x17D4 JUMP JUMPDEST DUP3 MSTORE RETURNDATASIZE PUSH1 0x0 PUSH1 0x20 DUP5 ADD RETURNDATACOPY JUMP JUMPDEST PUSH1 0x60 SWAP1 JUMP JUMPDEST DUP1 PUSH1 0x0 MSTORE PUSH1 0x2 PUSH1 0x20 MSTORE PUSH1 0x1 PUSH1 0x1 PUSH1 0xA0 SHL SUB PUSH1 0x40 PUSH1 0x0 KECCAK256 SLOAD AND SWAP1 DUP2 ISZERO PUSH2 0x1A16 JUMPI POP SWAP1 JUMP JUMPDEST PUSH1 0x24 SWAP1 PUSH1 0x40 MLOAD SWAP1 PUSH4 0x7E273289 PUSH1 0xE0 SHL DUP3 MSTORE PUSH1 0x4 DUP3 ADD MSTORE REVERT JUMPDEST PUSH1 0x2 PUSH1 0x7 SLOAD EQ PUSH2 0x1A3F JUMPI PUSH1 0x2 PUSH1 0x7 SSTORE JUMP JUMPDEST PUSH1 0x40 MLOAD PUSH4 0x3EE5AEB5 PUSH1 0xE0 SHL DUP2 MSTORE PUSH1 0x4 SWAP1 REVERT JUMPDEST PUSH1 0x1 PUSH1 0x1 PUSH1 0xA0 SHL SUB PUSH1 0x6 SLOAD AND CALLER SUB PUSH2 0x1A65 JUMPI JUMP JUMPDEST PUSH1 0x40 MLOAD PUSH4 0x118CDAA7 PUSH1 0xE0 SHL DUP2 MSTORE CALLER PUSH1 0x4 DUP3 ADD MSTORE PUSH1 0x24 SWAP1 REVERT JUMPDEST SWAP3 SWAP4 DUP3 EXTCODESIZE PUSH2 0x1A8D JUMPI JUMPDEST POP POP POP POP POP JUMP JUMPDEST PUSH2 0x1AD2 SWAP1 PUSH1 0x1 PUSH1 0x1 PUSH1 0xA0 SHL SUB DUP1 SWAP5 AND SWAP6 PUSH1 0x40 MLOAD SWAP5 DUP6 SWAP5 DUP2 PUSH4 0xA85BD01 PUSH1 0xE1 SHL SWAP9 DUP10 DUP9 MSTORE AND PUSH1 0x4 DUP8 ADD MSTORE AND PUSH1 0x24 DUP6 ADD MSTORE PUSH1 0x44 DUP5 ADD MSTORE PUSH1 0x80 PUSH1 0x64 DUP5 ADD MSTORE PUSH1 0x84 DUP4 ADD SWAP1 PUSH2 0x1717 JUMP JUMPDEST SUB SWAP1 PUSH1 0x20 DUP2 PUSH1 0x0 SWAP4 DUP2 DUP6 DUP9 GAS CALL SWAP1 DUP3 SWAP1 DUP3 PUSH2 0x1B52 JUMPI JUMPDEST POP POP PUSH2 0x1B20 JUMPI DUP3 PUSH2 0x1AF7 PUSH2 0x19C3 JUMP JUMPDEST DUP1 MLOAD SWAP2 SWAP1 DUP3 PUSH2 0x1B19 JUMPI PUSH1 0x40 MLOAD PUSH4 0x32505749 PUSH1 0xE1 SHL DUP2 MSTORE PUSH1 0x4 DUP2 ADD DUP4 SWAP1 MSTORE PUSH1 0x24 SWAP1 REVERT JUMPDEST PUSH1 0x20 SWAP2 POP ADD REVERT JUMPDEST PUSH1 0x1 PUSH1 0x1 PUSH1 0xE0 SHL SUB NOT AND SUB PUSH2 0x1B3A JUMPI POP CODESIZE DUP1 DUP1 DUP1 DUP1 PUSH2 0x1A86 JUMP JUMPDEST PUSH1 0x24 SWAP1 PUSH1 0x40 MLOAD SWAP1 PUSH4 0x32505749 PUSH1 0xE1 SHL DUP3 MSTORE PUSH1 0x4 DUP3 ADD MSTORE REVERT JUMPDEST SWAP1 SWAP2 SWAP3 POP PUSH1 0x20 DUP2 RETURNDATASIZE PUSH1 0x20 GT PUSH2 0x1B93 JUMPI JUMPDEST DUP2 PUSH2 0x1B6F PUSH1 0x20 SWAP4 DUP4 PUSH2 0x17D4 JUMP JUMPDEST DUP2 ADD SUB SLT PUSH2 0x1EE JUMPI MLOAD SWAP1 PUSH1 0x1 PUSH1 0x1 PUSH1 0xE0 SHL SUB NOT DUP3 AND DUP3 SUB PUSH2 0xD66 JUMPI POP SWAP1 CODESIZE DUP1 PUSH2 0x1AE8 JUMP JUMPDEST RETURNDATASIZE SWAP2 POP PUSH2 0x1B62 JUMP JUMPDEST PUSH1 0x40 MLOAD SWAP1 PUSH1 0x60 DUP3 ADD DUP3 DUP2 LT PUSH8 0xFFFFFFFFFFFFFFFF DUP3 GT OR PUSH2 0x17BE JUMPI PUSH1 0x40 MSTORE PUSH1 0x40 DUP3 MSTORE PUSH32 0x6768696A6B6C6D6E6F707172737475767778797A303132333435363738392B2F PUSH1 0x40 DUP4 PUSH32 0x4142434445464748494A4B4C4D4E4F505152535455565758595A616263646566 PUSH1 0x20 DUP3 ADD MSTORE ADD MSTORE JUMP JUMPDEST SWAP1 PUSH2 0x1C15 DUP3 PUSH2 0x17F6 JUMP JUMPDEST PUSH2 0x1C22 PUSH1 0x40 MLOAD SWAP2 DUP3 PUSH2 0x17D4 JUMP JUMPDEST DUP3 DUP2 MSTORE DUP1 SWAP3 PUSH2 0x1C33 PUSH1 0x1F NOT SWAP2 PUSH2 0x17F6 JUMP JUMPDEST ADD SWAP1 PUSH1 0x20 CALLDATASIZE SWAP2 ADD CALLDATACOPY JUMP JUMPDEST DUP1 PUSH1 0x0 SWAP2 PUSH27 0x184F03E93FF9F4DAA797ED6E38ED64BF6A1F010000000000000000 DUP1 DUP3 LT ISZERO PUSH2 0x1D80 JUMPI JUMPDEST POP PUSH14 0x4EE2D6D415B85ACEF8100000000 DUP1 DUP4 LT ISZERO PUSH2 0x1D71 JUMPI JUMPDEST POP PUSH7 0x2386F26FC10000 DUP1 DUP4 LT ISZERO PUSH2 0x1D62 JUMPI JUMPDEST POP PUSH4 0x5F5E100 DUP1 DUP4 LT ISZERO PUSH2 0x1D53 JUMPI JUMPDEST POP PUSH2 0x2710 DUP1 DUP4 LT ISZERO PUSH2 0x1D44 JUMPI JUMPDEST POP PUSH1 0x64 DUP3 LT ISZERO PUSH2 0x1D34 JUMPI JUMPDEST PUSH1 0xA DUP1 SWAP3 LT ISZERO PUSH2 0x1D2A JUMPI JUMPDEST PUSH1 0x1 SWAP1 DUP2 PUSH1 0x21 PUSH2 0x1CD5 PUSH1 0x1 DUP8 ADD PUSH2 0x1C0B JUMP JUMPDEST SWAP6 DUP7 ADD ADD SWAP1 JUMPDEST PUSH2 0x1CE7 JUMPI JUMPDEST POP POP POP POP SWAP1 JUMP JUMPDEST PUSH1 0x0 NOT ADD SWAP1 DUP4 SWAP1 PUSH32 0x3031323334353637383961626364656600000000000000000000000000000000 DUP3 DUP3 MOD BYTE DUP4 MSTORE8 DIV SWAP2 DUP3 ISZERO PUSH2 0x1D25 JUMPI SWAP2 SWAP1 DUP3 PUSH2 0x1CDB JUMP JUMPDEST PUSH2 0x1CE0 JUMP JUMPDEST SWAP2 PUSH1 0x1 ADD SWAP2 PUSH2 0x1CC3 JUMP JUMPDEST SWAP2 SWAP1 PUSH1 0x64 PUSH1 0x2 SWAP2 DIV SWAP2 ADD SWAP2 PUSH2 0x1CB8 JUMP JUMPDEST PUSH1 0x4 SWAP2 SWAP4 SWAP3 DIV SWAP2 ADD SWAP2 CODESIZE PUSH2 0x1CAD JUMP JUMPDEST PUSH1 0x8 SWAP2 SWAP4 SWAP3 DIV SWAP2 ADD SWAP2 CODESIZE PUSH2 0x1CA0 JUMP JUMPDEST PUSH1 0x10 SWAP2 SWAP4 SWAP3 DIV SWAP2 ADD SWAP2 CODESIZE PUSH2 0x1C91 JUMP JUMPDEST PUSH1 0x20 SWAP2 SWAP4 SWAP3 DIV SWAP2 ADD SWAP2 CODESIZE PUSH2 0x1C7F JUMP JUMPDEST PUSH1 0x40 SWAP4 POP DUP2 DIV SWAP2 POP CODESIZE PUSH2 0x1C66 JUMP JUMPDEST SWAP2 SWAP1 SWAP2 DUP1 MLOAD ISZERO PUSH2 0x1E90 JUMPI DUP1 MLOAD SWAP3 PUSH1 0x2 SWAP2 PUSH1 0x2 DUP6 ADD DUP1 SWAP6 GT PUSH2 0x1E7A JUMPI PUSH1 0x3 DUP1 SWAP6 DIV PUSH1 0x1 PUSH1 0x1 PUSH1 0xFE SHL SUB DUP2 AND DUP2 SUB PUSH2 0x1E7A JUMPI PUSH2 0x1DCD SWAP1 PUSH1 0x2 SWAP7 SWAP5 SWAP7 SHL PUSH2 0x1C0B JUMP JUMPDEST SWAP3 PUSH1 0x20 DUP5 ADD SWAP3 DUP3 SWAP2 DUP4 MLOAD DUP5 ADD SWAP8 PUSH1 0x20 DUP10 ADD SWAP3 DUP4 MLOAD SWAP5 PUSH1 0x0 DUP6 MSTORE JUMPDEST DUP11 DUP2 LT PUSH2 0x1E2D JUMPI POP POP POP POP PUSH1 0x3 SWAP4 SWAP5 SWAP6 SWAP7 POP MSTORE MLOAD MOD DUP1 PUSH1 0x1 EQ PUSH2 0x1E1A JUMPI PUSH1 0x2 EQ PUSH2 0x1E0F JUMPI POP SWAP1 JUMP JUMPDEST PUSH1 0x3D SWAP1 PUSH1 0x0 NOT ADD MSTORE8 SWAP1 JUMP JUMPDEST POP PUSH1 0x3D SWAP1 DUP2 PUSH1 0x0 NOT DUP3 ADD MSTORE8 PUSH1 0x1 NOT ADD MSTORE8 SWAP1 JUMP JUMPDEST DUP4 PUSH1 0x4 SWAP2 SWAP12 SWAP9 SWAP12 ADD SWAP11 DUP12 MLOAD PUSH1 0x1 SWAP1 PUSH1 0x3F SWAP1 DUP3 DUP3 DUP3 PUSH1 0x12 SHR AND DUP8 ADD ADD MLOAD DUP5 MSTORE8 DUP3 DUP3 DUP3 PUSH1 0xC SHR AND DUP8 ADD ADD MLOAD DUP4 DUP6 ADD MSTORE8 DUP3 DUP3 DUP3 PUSH1 0x6 SHR AND DUP8 ADD ADD MLOAD DUP8 DUP6 ADD MSTORE8 AND DUP5 ADD ADD MLOAD DUP6 DUP3 ADD MSTORE8 ADD SWAP7 SWAP10 PUSH2 0x1DE7 JUMP JUMPDEST PUSH4 0x4E487B71 PUSH1 0xE0 SHL PUSH1 0x0 MSTORE PUSH1 0x11 PUSH1 0x4 MSTORE PUSH1 0x24 PUSH1 0x0 REVERT JUMPDEST POP SWAP1 POP PUSH1 0x40 MLOAD PUSH2 0x1E9F DUP2 PUSH2 0x17A2 JUMP JUMPDEST PUSH1 0x0 DUP2 MSTORE SWAP1 JUMP JUMPDEST SWAP2 SWAP1 SWAP2 DUP1 MLOAD ISZERO PUSH2 0x1E90 JUMPI DUP1 MLOAD SWAP3 PUSH1 0x2 SWAP2 PUSH1 0x2 DUP6 ADD DUP1 SWAP6 GT PUSH2 0x1E7A JUMPI PUSH1 0x3 DUP1 SWAP6 DIV PUSH1 0x1 PUSH1 0x1 PUSH1 0xFE SHL SUB DUP2 AND DUP2 SUB PUSH2 0x1E7A JUMPI PUSH2 0x1EE5 SWAP1 PUSH1 0x2 SWAP7 SWAP5 SWAP7 SHL PUSH2 0x1C0B JUMP JUMPDEST SWAP3 PUSH1 0x20 DUP5 ADD SWAP3 DUP3 SWAP2 DUP4 MLOAD DUP5 ADD SWAP8 PUSH1 0x20 DUP10 ADD SWAP3 DUP4 MLOAD SWAP5 PUSH1 0x0 DUP6 MSTORE JUMPDEST DUP11 DUP2 LT PUSH2 0x1F27 JUMPI POP POP POP POP PUSH1 0x3 SWAP4 SWAP5 SWAP6 SWAP7 POP MSTORE MLOAD MOD DUP1 PUSH1 0x1 EQ PUSH2 0x1E1A JUMPI PUSH1 0x2 EQ PUSH2 0x1E0F JUMPI POP SWAP1 JUMP JUMPDEST DUP4 PUSH1 0x4 SWAP2 SWAP12 SWAP9 SWAP12 ADD SWAP11 DUP12 MLOAD PUSH1 0x1 SWAP1 PUSH1 0x3F SWAP1 DUP3 DUP3 DUP3 PUSH1 0x12 SHR AND DUP8 ADD ADD MLOAD DUP5 MSTORE8 DUP3 DUP3 DUP3 PUSH1 0xC SHR AND DUP8 ADD ADD MLOAD DUP4 DUP6 ADD MSTORE8 DUP3 DUP3 DUP3 PUSH1 0x6 SHR AND DUP8 ADD ADD MLOAD DUP8 DUP6 ADD MSTORE8 AND DUP5 ADD ADD MLOAD DUP6 DUP3 ADD MSTORE8 ADD SWAP7 SWAP10 PUSH2 0x1EFF JUMP INVALID LOG2 PUSH5 0x6970667358 0x22 SLT KECCAK256 0xA5 SAR ADDMOD 0xB5 MOD DUP6 JUMP XOR CALLDATACOPY MSTORE8 0xCF PUSH23 0xB197AE188C624FF69B4959BA59614273871D802064736F PUSH13 0x63430008180033000000000000 "},"methodIdentifiers":{"MAX_SUPPLY()":"32cb6b0c","MINT_PRICE()":"c002d23d","approve(address,uint256)":"095ea7b3","balanceOf(address)":"70a08231","getApproved(uint256)":"081812fc","isApprovedForAll(address,address)":"e985e9c5","mint()":"1249c58b","name()":"06fdde03","owner()":"8da5cb5b","ownerOf(uint256)":"6352211e","payout()":"63bd1d4a","renounceOwnership()":"715018a6","safeTransferFrom(address,address,uint256)":"42842e0e","safeTransferFrom(address,address,uint256,bytes)":"b88d4fde","setApprovalForAll(address,bool)":"a22cb465","supportsInterface(bytes4)":"01ffc9a7","symbol()":"95d89b41","tokenURI(uint256)":"c87b56dd","totalMinted()":"a2309ff8","transferFrom(address,address,uint256)":"23b872dd","transferOwnership(address)":"f2fde38b","withdraw()":"3ccfd60b"}}}}}